:020000040000FA
:1000000080020010690100006D0100006F01000016
:100010007101000073010000750100000000000084
:100020000000000000000000000000007701000058
:1000300079010000000000007B0100007D0100004C
:100040007F0100007F0100007F0100007F010000B0
:100050007F0100007F0100007F0100007F010000A0
:100060007F0100007F0100007F0100007F01000090
:100070007F0100007F0100007F0100007F01000080
:100080007F0100007F0100007F0100007F01000070
:100090007F0100007F0100007F0100007F01000060
:1000A0007F0100007F0100007F0100007F01000050
:1000B0007F0100007F0100007F0100007F01000040
:1000C0007F0100007F0100007F01000000F002F8C6
:1000D00000F03CF80AA090E8000C82448344AAF1A6
:1000E0000107DA4501D100F031F8AFF2090EBAE8A4
:1000F0000F0013F0010F18BFFB1A43F0010318475C
:10010000C0140000E0140000103A24BF78C878C181
:10011000FAD8520724BF30C830C144BF04680C600D
:10012000704700000023002400250026103A28BF55
:1001300078C1FBD8520728BF30C148BF0B60704759
:100140001FB5AFF300801FBD10B510BD00F086F8DD
:100150001146FFF7F5FF00F021F800F0A4F8FFF7D3
:10016000F3FF00F0ABF8000008480047FEE7FEE7A9
:10017000FEE7FEE7FEE7FEE7FEE7FEE7FEE7FEE757
:1001800003480449024A044B70470000CD000000B8
:1001900080000010800200108000001010B588B0B0
:1001A000002400F06CFD1623152214211320CDE944
:1001B0000523CDE903011223112210218DE80E0041
:1001C0000F230B22FF210A2000F00EF9102102203C
:1001D00000F053FA08A000F0DDFA0BE0012000F077
:1001E00012FA214606A000F0A5FB4FF4FA7000F0C9
:1001F0001AF8641CF2E70000446563696D616C00E5
:10020000436F756E743D25346400000000220021A8
:1002100000BF05E0002100E0491C1729FCD3521C57
:100220008242F7D3704730B50546002404E04FF40E
:100230007A70FFF7EBFF641CAC42F8D330BD30B5E9
:100240000546002404E04FF47A70FFF7ECFF641CCD
:10025000AC42F8D330BD704770477047754600F028
:1002600029F8AE4605006946534620F0070085464A
:1002700018B020B5FFF784FFBDE820404FF000061E
:100280004FF000074FF000084FF0000B21F007017E
:10029000AC46ACE8C009ACE8C009ACE8C009ACE8C1
:1002A000C0098D4670470446AFF300802046FFF733
:1002B00056FF0000004870471C00001003494FF033
:1002C0001800ABBE704700000900000026000200C5
:1002D0007047000002494FF0000001F027B900000C
:1002E0000000F87F02494FF0000001F01FB9000044
:1002F0000000F87F0000000000000000FFFFFFFF8B
:1003000030B5A0281BDA032919D8431100F01F00CB
:100310005B00102804DB5C1CE3B2A0F11004E0B227
:100320004406200E2E4C04EB8302032585401468FE
:10033000AC43146001FA00F514682C43146030BD1E
:1003400030B5A02811DA421100F01F00254C04EB53
:10035000421329B11C68012585402C431C6004E030
:100360001D6801248440A5431D6030BD30B5A02820
:1003700011DA421100F01F001A4C04EB421329B1AC
:100380009C69012585402C439C6104E0DD690124C2
:1003900084402543DD6130BD10B5A0280ADA411143
:1003A00000F01F000F4B03EB4112546901238340FF
:1003B0005C40546110BD30B501460020A0290EDA22
:1003C0004A1101F01F01074C04EB42135D6901243F
:1003D0008C40254201D0012400E00024E0B230BD71
:1003E00000C0024000C009202DE9F05F04460D4620
:1003F00016461F46DDE90CABDDE90A89FC48C470EE
:1004000005714671877180F8078080F8089080F840
:1004100009A080F80AB0F6490E98C8720F980873C0
:1004200010984873FF2F08D0B8F1FF0F05D0B9F12D
:10043000FF0F02D0BAF1FF0F03D10420EC498870FE
:1004400012E00820EA49887001213846FFF778FF5A
:1004500001214046FFF774FF01214846FFF770FF76
:1004600001215046FFF76CFF01212046FFF768FF8E
:1004700001212846FFF764FF01213046FFF760FFA6
:1004800001215846FFF75CFF01210E98FFF758FF46
:1004900001210F98FFF754FF01211098FFF750FF3B
:1004A000BDE8F09F10B5D249C8780021FFF75EFF84
:1004B000CF4908790021FFF759FFCD49487901213B
:1004C000FFF754FF0A20FFF7A1FEC9494879002130
:1004D000FFF74CFF10BD10B50446C549887AC4F338
:1004E0000011FFF743FFC249C87AC4F34011FFF778
:1004F0003DFFBF49087BC4F38011FFF737FFBC49BC
:10050000487BE109FFF732FF10BD10B5044604F047
:100510000101B74A9079FFF729FFB549C879C4F3BB
:100520004001FFF723FFB249087AC4F38001FFF7C7
:100530001DFFAF49487AC4F3C001FFF717FF10BD94
:1005400010B5AB480079FF2840D0A949487B00216D
:10055000FFF7F6FEA649C8780021FFF707FFA44978
:1005600008790121FFF702FF00BFA1494879002166
:10057000FFF7FCFE0A20FFF749FE9D49487901215B
:10058000FFF7F4FE0A20FFF741FE9949487BFFF789
:1005900012FF04469648807804280FD19449487980
:1005A0000021FFF7E3FE0A20FFF730FE904948796B
:1005B0000121FFF7DBFE0A20FFF728FE002CD4D133
:1005C0008B49487B0121FFF7BBFE02E00120FFF7CA
:1005D0002AFE10BD10B50446FFF7B2FF84488078AC
:1005E000082803D12046FFF790FF06E02046FFF7DA
:1005F00072FFFFF757FF2007040E2046FFF76BFF3F
:10060000FFF750FF10BD10B5044679480078A042AE
:1006100008DD002077490870774804707749085D45
:10062000FFF7D8FF10BD10B50120FFF7D3FF002062
:10063000FFF7E9FF10BD10B53020FFF74CFFFFF7C3
:1006400031FF6420FFF7EFFD3020FFF744FFFFF795
:1006500029FFC820FFF7DAFD3020FFF73CFFFFF746
:1006600021FFC820FFF7D2FD2020FFF734FFFFF75E
:1006700019FFC820FFF7CAFD10BD70B504460D462E
:100680005B4845700470022C08DD05F00F009030C7
:100690005A49887005F00F00D030C8706420FFF709
:1006A000C2FD53488078082803D13820FFF792FF15
:1006B00008E04F488078042804D1FFF7BCFF2820C9
:1006C000FFF788FF0E20FFF785FFFFF7ACFF70BD37
:1006D00010B549480078401C47490870002045493A
:1006E00008704348007844490978884202DC0020B9
:1006F000414908704149404A1278885CFFF76AFF17
:1007000010BD10B53A49C8780121FFF72FFE3849CE
:1007100008790021FFF72AFE354948790121FFF7C2
:1007200025FE0A20FFF772FD314948790021FFF7C5
:100730001DFE10BD10B50446FFF702FF2C4880785F
:10074000082803D12046FFF7E0FE06E02046FFF729
:10075000C2FEFFF7D6FF2007040E2046FFF7BBFEC0
:10076000FFF7CFFF10BD10B504462148407821495E
:100770000978884201DD0A2C01D1FFF7A9FF0A2C74
:1007800007D02046FFF7D6FF1A480078401C1949C9
:10079000087010BD10B5044603E014F8010BFFF714
:1007A000E2FF20780028F8D110BD2DE9F041044681
:1007B0000D460F480078A04200DC00240C20FFF713
:1007C00009FF00262AE02046FFF71DFF002705E06D
:1007D000F119685CFFF7C7FF781CC7B2044840787E
:1007E000B84203DDF019285C0028F1D10DE00000CB
:1007F0000C000010050000100400001000000010A4
:100800002020FFF7B0FF781CC7B2CD484078B8422F
:10081000F6DCC820FFF707FD701CC6B2A85D0028F3
:10082000D1D10E20FFF7D6FEBDE8F081FEB504461B
:100830000D4616460027022C13D10FE0711E012031
:100840008840284201D0012000E00020C7B207F113
:100850003000C0B2FFF787FF701EC6B2002EEDD188
:100860003CE05DB9002704E03020FFF77CFF781CF6
:10087000C7B2B74232DA0A2FF6D32FE0002714E0CE
:100880004DB1B5FBF4F004FB1050C0B20DF80700F9
:10089000B5FBF4F507E0FF2E01D00A2E00D906E0E3
:1008A00000200DF80700781CC7B2B742E8DB00BF94
:1008B00012E0791E1DF80110092904DD791E1DF8CA
:1008C0000110373103E0791E1DF801103031C8B234
:1008D000FFF749FF781EC7B2002FEAD1FEBD13B55E
:1008E00082B0DDE9020100F041FB0446FF2221460F
:1008F0000A20FFF79BFF2E20FFF735FF204600F070
:1009000085FBCDE90001DDE9022300F069FCCDE9BA
:1009100002018CA00CC8DDE9020100F07DFBCDE9ED
:10092000000100F023FB0446FF2221460A20FFF7C6
:100930007DFF1FBD0FB42DE9FE4F0DA802900C9C4A
:10094000F5E094F800A0BAF1250F7DD1641C94F86D
:1009500000A0BAF1300F17DBBAF1390F14DC4FF0F9
:10096000000B0AE0AAF130000BEB8B0100EB410019
:1009700000F0FF0B641C94F800A0BAF1300F05DB07
:10098000BAF1390FEEDD01E04FF0FF0BBAF1580F6D
:100990007ED017DCBAF1440F47D009DCBAF1250F3D
:1009A00068D0BAF1420F70D0BAF1430F2BD121E0D9
:1009B000BAF1460F6AD0BAF1530F68D0BAF1550FA9
:1009C000F4D14CE0BAF1660F7BD009DCBAF1620FCA
:1009D00068D0BAF1630F0ED0BAF1640FE6D113E01C
:1009E000BAF1730F6ED0BAF1750F2ED0BAF1780F3D
:1009F000DCD140E000BF029802C801F0FF0A02907B
:100A00005046FFF7B0FE8DE0029802C80DB202908A
:100A1000002D04DA684205B22D20FFF7A4FE5A46E5
:100A200029460A20FFF702FF7CE0029840C80290A6
:100A3000002E03DA76422D20FFF795FE5A46314606
:100A40000A20FFF7F3FE6DE06DE0029802C88FB256
:100A500002905A4639460A20FFF7E8FE62E0029803
:100A600050F8048B02905A4641460A20FFF7DEFEFA
:100A700058E00DE052E0029802C88FB202905A4648
:100A800039461020FFF7D2FE4CE01CE02AE03CE0A3
:100A9000029850F8048B02905A4641461020FFF706
:100AA000C5FE3FE0029802C88FB20290BBF1FF0F73
:100AB00001D14FF0100B5A4639460220FFF7B6FE1F
:100AC00030E010E022E0029850F8048B0290BBF175
:100AD000FF0F01D14FF0100B5A4641460220FFF79D
:100AE000A5FE1FE000BF0298C01D20F007000146D0
:100AF000029000684968CDE9000102980830029030
:100B0000DDE90001FFF7EBFE0CE000BF029850F8B2
:100B1000049B02904846FFF73DFE03E02520FFF7C7
:100B200022FE00BF02E05046FFF71DFE641C207845
:100B300000287FF406AFBDE8FE0F5DF814FB00004F
:100B40000C0000100000000080842E4192480068D4
:100B5000C0F30160032860D18F488430006810F032
:100B6000030006D0012820D0022839D0032853D111
:100B700000E000BF88480068C0F30E00401C410040
:100B80008648414384488838D0F88800C0F307403D
:100B9000401CB1FBF0F180487C300068C0B2401CC2
:100BA000B1FBF0F07E49086036E07B480068C0F396
:100BB0000E00401C41007B48414377488838D0F8FC
:100BC0008800C0F30740401CB1FBF0F172487C3054
:100BD0000068C0B2401CB1FBF0F0714908601BE036
:100BE0006D480068C0F30E00401C41004FF4FA400D
:100BF000414369488838D0F88800C0F30740401C5A
:100C0000B1FBF0F164487C300068C0B2401CB1FB1D
:100C1000F0F06349086000BF30E05F48843000684E
:100C200010F0030006D0012810D0022819D00328A4
:100C300023D100E000BF58487C300068C0B2401C9F
:100C40005649B1FBF0F05649086016E052487C3036
:100C50000068C0B2401C5349B1FBF0F05049086035
:100C60000BE04D487C300068C0B2401C4FF4FA41A4
:100C7000B1FBF0F04A49086000BF00BF7047202078
:100C80004949086000BF4848006810F0400FFAD09A
:100C9000032041497C31086001203F498839C1F86F
:100CA0000C0142483C49091F0860AA203A49091D25
:100CB0000860552008600120374908390860AA20DB
:100CC0003549091D0860552033498839C1F88C0021
:100CD00000BF3148006810F0806FFAD003202E4921
:100CE00008390860AA202C498839C1F88C005520A1
:100CF0002949091D086000BF2748006810F0407F9F
:100D0000FAD0232024491C310860AA2022498839BE
:100D1000C1F8AC00552020492431086001201E494B
:100D200018310860AA201C492431086055201A494E
:100D30008839C1F8AC0000BF17482030006810F4B3
:100D4000806FF9D00320144918310860AA20124995
:100D50008839C1F8AC0055200F492431086000BF24
:100D60000D482030006810F4407FF9D000200E4973
:100D70000831086008498839C1F8AC010C480649B7
:100D80003C310860002008492831086043F23A00ED
:100D9000014988390860704788C00F4000093D004C
:100DA00008000010001BB700A0C10F406300050041
:100DB000DE87280410B591EA030F48BF83F0004393
:100DC00000F12282841A71EB030E05D2121943EB53
:100DD0000E03001B61EB0E01DFF880C14FEA1154D6
:100DE000A4EB135E1CEA430F18BF9CEA445F7DD05E
:100DF00023EA0C0321EA045143F48013DEF1200CB2
:100E000038D322FA0EFC10EB0C0023FA0EFC41EB57
:100E10000C01CEF1200C03FA0CFC10EB0C0051F18C
:100E20000001B1F5801FCEF1200C38D201EB045146
:100E3000BDE8104012FA0CF258BF7047401C38BF92
:100E40005FEA420218BF7047002814BF20F001007B
:100E500041F100014FEA410313F5001F38BF70470D
:100E600028BFB1F1C0413E494FF0000048BF41F0FA
:100E700000417047012A43EB0302AEF1200EDEF180
:100E80001F0C32BF4FF0000C23FA0EF310EB0300DF
:100E900041EB0451B4EB115FCAD0A1EB045101F551
:100EA0008011490801EB0451BDE810405FEA3000B1
:100EB0000CD350F1000038BF12FA0CFC06D1C3E786
:100EC000401C38BF5FEA4202C4D1BDE74FEA41038C
:100ED00013F5001F38BF704728BFB1F1C04120494A
:100EE0004FF0000048BF41F0004170479CEA445F6A
:100EF00008D0BDE8104011EA5C0F04BF01F00041CA
:100F000000207047012841EB0104012A43EB030E46
:100F1000644598BFE645DFF84CC0BDE810403FF699
:100F2000D9A9AFF30080012841EB0100012A43EB6E
:100F30000302904208D010F5001F04BF0020704744
:100F400019464FF00000704791EA030F4FF0000080
:100F500058BF704704494FF0000070470000E0FFA1
:100F60000000F07F110000040000F87F4FEAC12369
:100F700003B40A1543EA505318BF43F000430CD49E
:100F8000A2F56072D2F19E0211DBFF2ACCBF0021D4
:100F900023FA02F1084602B0704701F1804212F5CF
:100FA000801F80F204804FF0000002B0704703BC45
:100FB000DFF828C0012841EB010313F5001F88BFAB
:100FC0004CF4803C3FF68EA93CBF6FEAE17070475D
:100FD000AFF300806FEAE17070470000E8000204A0
:100FE00010F0004314BF4142014643F08043B1FA80
:100FF00081FC03F1F87311FA0CF1A3EB0C534FEAE7
:10100000415008BF704703EBE12170474FF0804328
:101010000146FFF7ECBF0000DFF8B4C170B53CEA51
:10102000111E18BF3CEA131E00F0A68081EA0305DA
:101030000CEA111E4EEAD57E1CEA131518BF11EA00
:101040000C1F00F08F80AE4421EA4C1123EA4C13B0
:10105000AEF17F7E41F4801143F48013A1FB024C7A
:10106000A0FB0365361955EB0C05A1FB034C4CF1B5
:101070000003A0FB021C16EB0C06654153F10003B4
:10108000094218BF46F001064FF0140CB3F5007F7B
:101090004CF1000CCCF1200425FA0CF203FA04F117
:1010A00041EA020105FA04F026FA0CF240EA0200D5
:1010B0006FF0030242EB2E4216FA04F401EB0255E4
:1010C00085EACE7115D05FEA440C38BF4FF040443A
:1010D0000FD308BF43F0004350F1000041F100017D
:1010E00010EAD37F4FF0804420EAD37018BF4FF04E
:1010F000404415F0004FDFF8DCC017D415EA0C0FA0
:1011000018BF3CEA010C11D070BD5FEACE7454BF29
:101110001CF4000F1CF4800F0ABF4FF080444FF006
:10112000404410F1010041F10001E2E7BEF1806F9F
:10113000A2BFA1F1C04144F0130C4CF0805CBDE8AB
:10114000704006DA4FF0000001F1C04101F00041AB
:1011500070476FF0000041EA500181EA10314FF012
:10116000000070474FEACE714FF0000070BD4FEAAB
:10117000CE714FF0000070BD4FEA4105B5EB4C1F3A
:101180004FEA430608BF002898BFB6EB4C1F08BFC4
:10119000002ABDE87040DFF840C03FF69BA8AFF3DF
:1011A00000804FF4001CBCEB410F98BFBCEB430F19
:1011B0000AD84FF0000081EA030101F0004141F03C
:1011C000FE4141F47001704704494FF00000704740
:1011D0000000FF070000F07F130000040000F87F0C
:1011E00091EA030F10B581F000413FF5EBAD83F0BC
:1011F000004300F009B8000010B591EA030F48BFA2
:1012000083F000433FF5DEAD841A71EB030E07D285
:1012100012198EF0004E43EB0E03001B61EB0E0122
:10122000DFF810C24FEA1154A4EB135E1CEA430F1F
:1012300018BF9CEA445F00F0C58023EA6C03524269
:1012400021EA0451C3EB6C0338BF5B1EDEF1200CB6
:1012500029D322FA0EFC10EB0C0043FA0EFC41EBF2
:101260000C01CEF1200C03FA0CFC10EB0C0051F138
:101270000001CEF1200C2DD401EB0451BDE810404B
:1012800012FA0CF24FF0120C4CF0804C58BF704721
:10129000401C1CBFB2F1004F704700280CBF491C16
:1012A00020F00100704712EB020C43EB030218BF61
:1012B0004FF0010C4CEA4202AEF1200EDEF11E0CA2
:1012C00063D943FA0EFC10EB0C0051F1FF31CEF163
:1012D0001E0CD1D50CF1010C12FA0CFC404141EB73
:1012E000010101EB445E5FEA5E5E10D901EB04513F
:1012F000BDE8104010EBDC7038BFBCF1004F18BFE8
:10130000704700280CBF491C20F0010070473FD2F5
:1013100011F5001108BF002801D1BDE810403FD0F1
:101320004FEAD42E24F40064B1FA81F2202AA4F109
:10133000020404BFB0FA80F3D218A2F10B02B2F19A
:101340002003A4EB02040CD2C2F1200301FA02F143
:1013500020FA03F341EA030100FA02F0C2F120038C
:1013600003E000FA03F14FF0000001EBCE71002C16
:1013700001EB0451BDE81040A8BF704701F1C04126
:101380004FF0000001F00041704701EB045110BD27
:10139000491001EB0451BDE810404FEA300002E073
:1013A0004FF0000170474FF0120C4A0008BF004296
:1013B000F6D0B2F5001F28BF704701F000414FF092
:1013C000000070479CEA445F07D0BDE8104011EA76
:1013D0005C0F04BF002100207047012841EB01048D
:1013E000012A43EB030E644598BFE645DFF848C089
:1013F000BDE810403EF66EAFAFF30080012841EB30
:101400000100012A43EB0302904209D010F5001FAE
:1014100004BF0020704783F000414FF00000704788
:1014200091EA030F4FF0000048BF704703494FF0A7
:10143000000070470000E0FF120000040000F87F89
:10144000094248BF4CF4803C4FF4C0634FEA11524C
:1014500003F1010321EA025122F400629A1A48BF03
:101460006FF0FE0241F48011352A3CD830D0152AA5
:101470001ED3203A0CD90028C2F1200321FA02F031
:1014800001FA03F218BF42F001024FF0000130E010
:10149000C2F1000302F1200201FA03F120FA02F284
:1014A00041EA020100FA03F208464FF0000120E091
:1014B000C2F1200310B400FA03F401FA03F320FA96
:1014C00002F021FA02F1224610BC43EA000010E0CB
:1014D00050EA01324FF000004FF000014FF000429F
:1014E00018BF521C05E04FF001024FF000014FF011
:1014F00000001CF4803F2CF4803C18BF41F00041F8
:10150000124208BF7047520003D303D0401C41F180
:10151000000170475FEAAC72F8D4FAD1401C41F187
:10152000000120F00100F4E7704770470CF00F0352
:10153000092B08BF082000F02B800A2B0BD0082BAA
:1015400018BF704708BF1CF0400F0AD04FF00000D2
:101550004FF0000170471CF0400F18BF4FF00040E3
:1015600070471CF0100F08D020F0704300F07F424D
:1015700042EAD3014FEA4370704700F0604021F027
:101580007F4242EA000201F07F4040EA72707047F9
:101590001CF4801F11D01CF4E02F03D06FEACC3173
:1015A000490070474FF04050EFF3008222F0704244
:1015B00042EA000282F3008870474FF00000704753
:1015C000E0150000000000100C0000000801000001
:1015D000EC1500000C000010740200002401000053
:0C15E00080C090D00000000000E1F50584
:04000005000000CD2A
:00000001FF
