:020000040000FA
:1000000090020010D9000000DD000000DF000000B9
:10001000E1000000E3000000E50000000000000037
:10002000000000000000000000000000E7000000E9
:10003000E900000000000000EB000000ED000000FF
:10004000EF000000EF000000EF000000EF000000F4
:10005000EF000000EF000000EF000000EF000000E4
:10006000EF000000EF000000EF000000EF000000D4
:10007000EF000000EF000000EF000000EF000000C4
:10008000EF000000EF000000EF000000EF000000B4
:10009000EF000000EF000000EF000000EF000000A4
:1000A000EF000000C3070000EF000000EF000000B9
:1000B000EF000000EF000000EF000000EF00000084
:1000C000EF000000DFF80CD000F004F90048004712
:1000D000F30900009002001005480047FEE7FEE724
:1000E000FEE7FEE7FEE7FEE7FEE7FEE7FEE7FEE7E8
:1000F000C500000020207049086000BF6E480068FD
:1001000010F0400FFAD003206B499C3908600120A1
:100110006A49C1F80C016A486849843108600120C5
:10012000091F0860AA2065498C3108605520634981
:10013000C1F88C0000BF61488830006810F0806F03
:10014000F9D003205D4980310860AA205B49C1F8DD
:100150008C00552059498C31086000205649983947
:100160000860554908310860091D08605548534921
:10017000C431086000205149C1F8C8014F48883097
:100180000068C0F30160032860D14B4894380068D0
:1001900010F0030006D0012820D0022839D003280F
:1001A00053D100E000BF454888300068C0F30E001E
:1001B000401C4100444841434048D0F88800C0F307
:1001C0000740401CB1FBF0F13B489C380068C0B2CE
:1001D000401CB1FBF0F03D49086036E037488830FC
:1001E0000068C0F30E00401C4100394841433348C9
:1001F000D0F88800C0F30740401CB1FBF0F12E4856
:100200009C380068C0B2401CB1FBF0F02F49086078
:100210001BE02A4888300068C0F30E00401C4100F3
:100220004FF4FA4041432548D0F88800C0F3074016
:10023000401CB1FBF0F120489C380068C0B2401C63
:10024000B1FBF0F02149086000BF30E01A48943853
:10025000006810F0030006D0012810D0022819D041
:10026000032823D100E000BF13489C380068C0B2C7
:10027000401C1549B1FBF0F01449086016E00E4827
:100280009C380068C0B2401C1149B1FBF0F00F4926
:1002900008600BE008489C380068C0B2401C4FF46E
:1002A000FA41B1FBF0F00949086000BF00BF43F21A
:1002B0003A00024908607047A0C10F4000C00F40DB
:1002C00063000500DE87280400093D0000000010DF
:1002D000001BB700064C074D06E0E06840F0010344
:1002E00094E8070098471034AC42F6D3FFF7EEFECF
:1002F000A4290000C429000070470000FFFFFFFF91
:1003000030B5012801D1F84D00E0F84D2A46002310
:1003100000BF0A24F64DB5FBF4F5B5FBF1F56B1EF5
:10032000C3F30903F34D55F824502B43536130BDFB
:1003300070B50446012C01D1EB4800E0EB480546BE
:10034000012C16D1EC48006840F40050EA49C43949
:10035000C1F8C400E948006840F00100E7490860BE
:100360000846006840F004000860192000F05EFABA
:1003700015E0E148006840F48040DF49C439C1F825
:10038000C400DE48006940F48040DC49086108464A
:10039000006940F480300861192000F047FA02201B
:1003A000D74908600120286000202861A860D5494D
:1003B0002046FFF7A5FF0320286170BD012801D169
:1003C000C94A00E0C94A114600220A60704710B5C8
:1003D000012801D1C44A00E0C44A114600BFCA69DD
:1003E00012F0040FFBD00122431EC74C44F8232017
:1003F00010BD30B5012801D1BB4C00E0BB4C2346F9
:100400000C7B4FF4702505EA04444D7B012D00D18F
:1004100000E000256D4244EAC5748D7B012D00D1BA
:1004200000E0002544EA8572DC6914F0040F08D06E
:100430001A630C685C634C689C638C68DC632124E1
:100440005C6030BD30B5012801D1A74C00E0A74C5D
:1004500023461A6AD40F4C73C2F380748C73C2F3B0
:1004600003440C735C6A0C608C7B1CB99C6A4C6006
:10047000DD6A8D6030BDF0B5DFF890C2DCF800E0D9
:10048000ACF1040CDCF800C00CF1010C0EEB6C0CB0
:10049000BCF5007F00DBF0BD4FF0010CDFF860E23F
:1004A000CEF800C0002A71D1A0F1010C41EA4C3114
:1004B0004FF2FF7C01EA0C01DFF850C2ACF1040CF2
:1004C000DCF800C01CF0010F24D1DFF840C2DCF8DA
:1004D00000C0BCF1000F1DD0DFF830C2ACF1040C3D
:1004E000DCF800C04FEA6C05DFF820C2DCF80070D1
:1004F000DFF81CC25CF8253007E06D1CDFF810C285
:100500005CF825404CF8253023465FEA070CA7F13C
:100510000107F2D1DFF8F4C1ACF1040CDCF800C043
:10052000BCF1000F08D14FF6FF7C4CEA014CDFF81C
:10053000E0E1CEF800C0B8E0DFF8D0C1ACF1040CC7
:10054000DCF800C0BCF1010F21D1DFF8C4C1DCF838
:1005500000C0B1EB1C4F0CD2DFF8B4C1DCF800C016
:100560004FEA1C4C4CEA014CDFF8A4E1CEF800C085
:100570009BE0DFF89CC1DCF800C06FF30F0C4CEA85
:10058000010CDFF88CE1CEF800C08EE09CE0002585
:10059000DFF878C1ACF1040CDCF80060DCF800C0D6
:1005A000ACF1010C4FEA6C0716E0DFF864C15CF8AF
:1005B00025C0B1EB1C4F01D26E000FE0DFF850C137
:1005C0005CF825C01FFA8CFC8C4504D94FF0010E55
:1005D0000EEB450602E06D1CBD42E6DD00BFBD42EC
:1005E0001EDDDFF828C1ACF1040CDCF800C01CF003
:1005F000010F08D14FF6FF7C4CEA014CDFF810E107
:100600004EF825C051E0DFF808C15CF825C06FF353
:100610000F0C4CEA010CDFF8F8E04EF825C044E07E
:10062000DFF8ECC05CF8253016F0010F04D14FEA7A
:10063000014C4CEA134405E04FEA134C4FEA0C4CD2
:100640004CEA0104DFF8C8C04CF82540DFF8BCC014
:10065000ACF1040CDCF800C04FEA6C070DE06D1C37
:10066000DFF8ACC05CF825404FEA144C4CEA034C70
:10067000DFF89CE04EF825C02346BD42EFDBDFF8F3
:100680008CC0ACF1040CDCF800C01CF0010F0CD1E4
:10069000DFF87CC05CF825C06FF30F0C4FF6FF7ECF
:1006A000F444DFF86CE04EF825C0DFF860C0ACF130
:1006B000040CDCF800C00CF1010CDFF850E0AEF1E6
:1006C000040ECEF800C056E0A0F1010C41EA4C71D6
:1006D000DFF838C0ACF1040CDCF800C00CF1010C00
:1006E0004FEA6C0500261EE00040044000800440F4
:1006F00040787D0140140000C4C00F4000C002409B
:1007000000C0034020A107000400001018000010E2
:1007100000800340DFF82CC15CF825C08C4500D96F
:1007200007E06D1C761CDFF820C1DCF800C06645D0
:10073000F0DB00BFDFF80CC15CF825304CF8251069
:10074000DFF804C1DCF800C00CF1010CDFF8F8E0C0
:10075000CEF800C0F446DCF800C0ACF1010708E0B8
:100760006D1C761CDFF8DCC05CF825404CF82530A9
:100770002346BE42F4DBDFF8D0C0ACF1040CDCF859
:1007800000C00CF1010C4FEA6C0C4FEA8C03DFF84F
:10079000B8C0DCF800C003EB8C044FF0000CDFF8AD
:1007A000ACE0CEF804C0F446CCF80830CCF80C30FD
:1007B000CCF81040CCF814404FF0000CCEF800C03C
:1007C00069E610B52248806810F0010F09D0214970
:1007D0000120FFF737FE04201D49486001201E4913
:1007E00008601E48806810F0010F0AD019491031C6
:1007F0000220FFF727FE042018494860012016490F
:1008000048601348806810F0080F02D00120144996
:1008100008601248806810F0080F02D001201049CB
:1008200048600B48C4680D48C46810BD00F01F0242
:100830000121914042094FF0E02303EB8202C2F80C
:1008400000117047008003401800001000C00340F2
:10085000004004406C0000100C00001000800440B8
:1008600004000010002206E0002100E0491CB1F560
:100870007A7FFBD3521C8242F6D3704710B50446F0
:100880004FF4FF008649C861E00388614FF480603F
:10089000C861400088613220FFF7E4FF4FF4006038
:1008A0007F49C86110BD00B57D4800687D49084397
:1008B0007B4908603820FFF7E1FF0E20FFF7DEFFDD
:1008C0000120FFF7DBFF8020FFF7D8FF00BD10B548
:1008D00004464FF4FF007249C861E00388614FF499
:1008E00080608861400088613220FFF7BBFF4FF4D1
:1008F00000606B49C86110BD10B5044603E0207864
:10090000FFF7E5FF641C20780028F8D110BD30B552
:1009100004467CB10A20B4FBF0F52846FFF7F7FF48
:100920000A20B4FBF0F100FB11403030C5B228467C
:10093000FFF7CDFF30BD00E0401E0028FCD170471E
:10094000302201F8012B782201F8012B564A02EBE4
:100950002012127801F8012B00F00F02524B9A5C22
:1009600001F8012B704710B500F0BEF810BD10B5AE
:1009700000F0D1F800F0E2F8C0F3071400F0D7F867
:10098000204610BD10B5494949480068C0B2FFF77C
:10099000D7FF4649C91D47480068C0B2FFF7D0FFDE
:1009A000C020FFF76BFF4148C01EFFF7A5FF41487D
:1009B0000068C0B200F01CF93F48FFF7BCFF10BD53
:1009C00010B50120FFF7B4FC0220FFF7B1FC0022B4
:1009D00021210120FFF74FFD0120FFF7EFFC02204E
:1009E000FFF7ECFC0120FFF7F2FC0220FFF7EFFC21
:1009F00010BD10B5FFF77EFBFFF7B5FF00F0B2F8B2
:100A0000FFF7DEFF00F073F94FF6FF7000F04DFBCB
:100A1000FFF749FF29A0FFF76FFFC020FFF72EFF68
:100A20002AA0FFF769FF4FF4FA60FFF784FF212047
:100A300029490861002404E000212748001D0155D0
:100A4000641C082CF8DB0121234801770021417741
:100A5000817723E0FFF78BFF154908601F48406846
:100A600060B100201D49486011480068C1B21A48B1
:100A7000017500F110010220FFF7BBFC42F210707B
:100A8000FFF759FF1648006830B10020144908608C
:100A90001448007907490860FFF774FFDAE700009F
:100AA00000C00920008C7F002400001037000010D7
:100AB0001C0000102000001040420F0043414E2057
:100AC0004C4F4F5020544553540000004C5043317C
:100AD0003736382050726F004C00001004000010B0
:100AE0000C0000106C0000101A48406820F44030E0
:100AF000184948600846406840F48030486016480D
:100B0000006840F480501449C439C1F8C400134847
:100B10001349086070471248006820F0E0601049EF
:100B200008600846006840F08070086070470C4814
:100B3000006820F0E0600A490860704700BF08487C
:100B4000406810F0004FFAD005484168C1F30B101F
:100B50007047000000C00240C4C00F4002042000E3
:100B6000004003403B48006A40F030403949086289
:100B70000846006C40F07C0008647047002117E0D4
:100B800001228A40024212D0032908DA314A526B0C
:100B9000314B53F821301A432E4B5A6307E02D4A4C
:100BA000526D2D4B53F821301A432A4B5A65491C7C
:100BB0000829E5DB7047002117E001228A40024244
:100BC00012D0032908DA234A526B234B53F8213001
:100BD0009A43204B5A6307E01E4A526D1E4B53F84E
:100BE00021309A431B4B5A65491C0829E5DB7047A5
:100BF00000212BE001228A40024213D0032908DAA7
:100C0000144A526B144B53F821301A43114B5A6358
:100C10001BE0104A526D104B53F821301A430D4B14
:100C20005A6512E0032908DA0A4A526B0A4B53F854
:100C300021309A43074B5A6307E0064A526D064B30
:100C400053F821309A43034B5A65491C0829D1DBDC
:100C50007047000000C0092084140000800400BF19
:100C60000100A0F10100FBD1704710B504464020FF
:100C7000FA49C861702000F095FB002000F092FB5B
:100C8000204600F08FFB4020F449886110BD10B56C
:100C900004464020F149C861722000F083FB201215
:100CA00000F080FBE0B200F07DFB4020EB49886162
:100CB00010BD70B504462046FFF7D7FF00BF0025E2
:100CC0004020E649C861732000F06CFB002000F072
:100CD00069FB002000F066FB05462D02002000F0B5
:100CE00061FB05434020DD498861284670BD10B591
:100CF000DB48006840F48060D949C439C1F8C400B9
:100D00000846D0F8A80140F40010C1F8A801D54861
:100D1000406A20F07060D3494862D048D0F8800023
:100D200040F04050CD49803108608805CB49C1F87A
:100D300098000846006840F0400008604020886144
:100D4000C848006820F47C20C6490860084600684E
:100D500040F428200860C720C349086002200861C9
:100D600048600520FFF77AFF0020FFF7A2FFBF4988
:100D700008804FF48071012000F036FB4FF4E061F1
:100D8000022000F031FB0021042000F02DFB40F296
:100D90000721082000F028FB0021092000F024FB97
:100DA00000210A2000F020FB00210C2000F01CFB99
:100DB00000210D2000F018FB00210F2000F014FB93
:100DC0000021102000F010FB0021112000F00CFB8E
:100DD0000021122000F008FB0021132000F004FB8A
:100DE0001420FFF73BFF41F2B021102000F0FCFA85
:100DF0000721112000F0F8FA0520FFF72FFF40F23D
:100E0000BD11122000F0F0FA0520FFF727FF4FF484
:100E1000A051132000F0E8FA0E21292000F0E4FA96
:100E20000520FFF71BFF0021202000F0DDFA002144
:100E3000212000F0D9FA8D480088A0F5A841083992
:100E40004FD140F60D31302000F0CEFA41F623119B
:100E5000312000F0C9FA41F62641322000F0C4FAF0
:100E600042F21C61332000F0BFFA42F219413420F3
:100E700000F0BAFA40F60B51352000F0B5FA41F215
:100E80000601362000F0B0FA4FF4C261372000F0BE
:100E9000ABFA40F20671382000F0A6FA4FF4417127
:100EA000392000F0A1FA40F605613A2000F09CFAE2
:100EB00040F601613B2000F097FA4FF487713C2027
:100EC00000F092FA40F20E513D2000F08DFA40F20F
:100ED00003413E2000F088FA40F207613F2000F015
:100EE00083FA62480088A0F5494190392ED1062145
:100EF000302000F079FA40F20111312000F074FA4C
:100F00000321322000F070FA4FF48371352000F095
:100F10006BFA40F60231362000F066FA40F20231F8
:100F2000372000F061FA40F20771382000F05CFAD7
:100F30000721392000F058FA4FF4C0613C2000F03E
:100F400053FA40F20B213D2000F04EFA00215020D0
:100F500000F04AFAEF21512000F046FA0021522019
:100F600000F042FA40F23F11532000F03DFA4FF4F6
:100F70002741602000F038FA3C480088A0F5A841DD
:100F8000083904D14FF42741602000F02DFA37488A
:100F90000088A0F54941903904D14FF41C516020DC
:100FA00000F022FA0121612000F01EFA00216A20DF
:100FB00000F01AFA0021802000F016FA00218120AA
:100FC00000F012FA0021822000F00EFA00218320A6
:100FD00000F00AFA0021842000F006FA00218520A2
:100FE00000F002FA1021902000F0FEF9002192207A
:100FF00000F0FAF90321932000F0F6F94FF488711C
:10100000952000F0F1F90021972000F0EDF9002182
:10101000982000F0E9F941F23801032000F0E4F9EA
:1010200040F23711072000F0DFF94FF080500B49F4
:101030009831086010BD10B50021502000F0D4F99F
:10104000EF21512000F0D0F90021522000F0CCF91E
:1010500040F23F11532000F0C7F910BD00C0092035
:10106000C4C00F4000C00240000003404800001010
:1010700070B504460D46A9B2202000F0B5F940F243
:101080003F10001B81B2212000F0AEF92220FFF7B3
:10109000ECFDDA480088FFF7FAFD70BDD7490880FB
:1010A0007047D649891C0880704770B50546FFF720
:1010B000C2FF0021202000F097F90021212000F03C
:1010C00093F92220FFF7D1FD00F079F9002403E025
:1010D000284600F080F9641CB4F5963FF8D300F080
:1010E00076F970BD2DE9F04704460D4616460027F7
:1010F000C4F59874A9B2502000F076F905F11700F4
:1011000081B2512000F070F9A1B2522000F06CF9C8
:1011100004F10F0081B2532000F066F9A9B220203B
:1011200000F062F9A1B2212000F05EF92220FFF761
:101130009CFD00F044F9B9461BE04FF00F0812E0A7
:1011400036F81710012000FA08F0014205D1AB482B
:10115000801C008800F03FF903E0A848008800F0F8
:101160003AF9A8F10108B8F1000FE9DAB61C09F163
:101170000109B9F1180FE0DB00F029F9BDE8F087AB
:101180002DE9F04105460E461446A4F12000C4B2F4
:1011900004EB44039A4F07EB031205EB4503D90018
:1011A0003001FFF79FFFBDE8F08170B506460C46A1
:1011B0001546FFF740FF06E015F8012B2146641C99
:1011C0003046FFF7DDFF28780028F5D170BD10B557
:1011D0000446FFF730FF8BA200212046FFF7E5FF12
:1011E00010BD2DE9F04704460D4616461F46DDF8B2
:1011F0002080C4F5A070841BA9B2502000F0F4F840
:1012000005F1170081B2512000F0EEF8A1B2522092
:1012100000F0EAF8A019401E81B2532000F0E4F873
:1012200008FB06F04FEA9028A9B2202000F0DCF875
:10123000A1B2212000F0D8F82220FFF716FD00F01F
:10124000BEF84FF0000915E0A6F1010A0DE0C24515
:1012500005D36A48801C008800F0BDF803E06748A9
:10126000008800F0B8F8AAF1010ABAF1000FEEDA2E
:1012700009F10109B945E7D300F0A9F8BDE8F08705
:101280002DE9F05F04460D4616461F46DDF828801E
:10129000C346C4F5A070841BA9B2502000F0A4F886
:1012A000E819401E81B2512000F09EF8A1B25220F0
:1012B00000F09AF8A019401E81B2532000F094F873
:1012C000A9B2202000F090F8A1B2212000F08CF803
:1012D0002220FFF7CAFC00F072F84FF0000A12E07B
:1012E000701E0BEB400B4FF0000905E03BF80209C4
:1012F00000F071F809F10109B145F7D3701C0BEB4F
:10130000400B0AF1010ABA45EAD300F060F8BDE8E3
:10131000F09F2DE9F05F04460D4616461F46DDF8A6
:101320002880C346C4F5A070841BA9B2502000F0E9
:101330005BF8E819401E81B2512000F055F8A1B2C7
:10134000522000F051F8A019401E81B2532000F045
:101350004BF8A9B2202000F047F8A1B2212000F0FC
:1013600043F82220FFF781FC00F029F807FB06F084
:10137000401ED8460BEB400B4FF0000A0CE04FF03C
:10138000000905E03BF8020900F025F809F1010920
:10139000B145F7D30AF1010ABA45F0D300F017F8C6
:1013A000BDE8F09F01461D48816000BF1B48C06832
:1013B00010F0040FFAD019488068C0B2704710B519
:1013C00040201749C8617220FFF7ECFF10BD402094
:1013D00013498861704710B504462012FFF7E2FFF9
:1013E000E0B2FFF7DFFF10BD70B504460D462046A2
:1013F000FFF73BFC2846FFF74AFC70BD4400001095
:10140000A4140000202020202020202020202020A4
:101410002020202020202020000000000000034089
:1014200000C0092002E008C8121F08C1002AFAD132
:101430007047002001E001C1121F002AFBD1704754
:10144000000000000000000000000000000000009C
:1014500000C001000000000000C0120000000000F9
:1014600000C023000000000000C0250000000000B4
:1014700000C03600000000000000000000C048006E
:1014800000C04900000000100000002000000080A3
:101490000400000008000000100000002000000010
:1014A00040000000000000000000000000000000FC
:1014B000000000000000000000000000000000002C
:1014C000000000000000000000000000000000001C
:1014D0000000000000008001800180018001800187
:1014E00080018001800180018001800180018001F4
:1014F00000000000800180010000000000000000EA
:101500000000000000000000CC00CC00CC00CC00AB
:10151000CC00CC0000000000000000000000000033
:1015200000000000000000000000000000000000BB
:1015300000000000000000000000000000000000AB
:10154000600C600C600C30063006FE1FFE1F30067B
:1015500038071803FE1FFE1F180318038C018C01A7
:101560008C01000000008000E003F80F9C0E8C1C32
:101570008C188C009800F801E007800E801C8C18F5
:101580008C189C18B80CF00FE0038000800000005D
:10159000000000000000000000000E181B0C110CE1
:1015A00011061106110311039B018E01C038C06C96
:1015B00060446044304430441844186C0C380000D7
:1015C000000000000000E001F003380718061806CC
:1015D0003003F001F000F8009C310E33061E061CAB
:1015E000061C063FFC73F021000000000000000014
:1015F00000000000000000000C000C000C000C00BB
:101600000C000C00000000000000000000000000C2
:1016100000000000000000000000000000000000CA
:10162000000000000000000200038001C000C000B4
:1016300060006000300030003000300030003000CA
:101640003000300060006000C000C0008001000376
:1016500000020000000020006000C0008001800146
:101660000003000300060006000600060006000650
:10167000000600060003000380018001C000600036
:10168000200000000000000000000000000000003A
:10169000C000C000D806F807E0013003380700009A
:1016A000000000000000000000000000000000003A
:1016B000000000000000000000000000000000002A
:1016C00080018001800180018001FC3FFC3F80019E
:1016D0008001800180018001000000000000000006
:1016E00000000000000000000000000000000000FA
:1016F00000000000000000000000000000000000EA
:101700000000000000008001800100010001800055
:1017100000000000000000000000000000000000C9
:10172000000000000000000000000000E007E007EB
:1017300000000000000000000000000000000000A9
:101740000000000000000000000000000000000099
:101750000000000000000000000000000000000089
:10176000000000000000C000C000000000000000F9
:10177000000000000000000C000C0006000600063F
:101780000003000300038003800180018001C0008A
:10179000C000C00060006000000000000000000009
:1017A000000000000000E003F007380E180C0C18D1
:1017B0000C180C180C180C180C180C180C180C1809
:1017C000180C380EF007E0030000000000000000D5
:1017D00000000000000000018001C001F00198013C
:1017E00088018001800180018001800180018001E9
:1017F00080018001800180010000000000000000E5
:10180000000000000000E003F80F180C0C180C1882
:1018100000180018000C000600038001C0006000E2
:1018200030001800FC1FFC1F00000000000000003A
:10183000000000000000E001F807180E0C0C0C0C72
:10184000000C0006C003C007000C001800180C189C
:101850000C18180CF807E00300000000000000005E
:10186000000000000000000C000E000F000F800DB3
:10187000C00C600C600C300C180C0C0CFC3FFC3FD6
:10188000000C000C000C000C000000000000000028
:10189000000000000000F80FF80F180018000C00FE
:1018A000EC03FC071C0E001C0018001800180C1894
:1018B0001C0C180EF807E0030000000000000000F8
:1018C000000000000000C007F00F381C18181800B6
:1018D0000C00CC03EC0F3C0E1C1C0C180C180C1844
:1018E000181C380EF007E0030000000000000000A4
:1018F000000000000000FC1FFC1F000C000600069A
:10190000000380038001C001C000E00060006000AF
:1019100070003000300030000000000000000000C7
:10192000000000000000E003F007380E180C180C4F
:10193000180C3806F007F007180C0C180C180C18C7
:101940000C18380CF80FE003000000000000000045
:10195000000000000000E003F007380E1C0C0C181B
:101960000C180C181C1C381EF81BE0190018000C71
:10197000000C1C0EF807F001000000000000000041
:101980000000000000000000000000000000000057
:101990008001800100000000000000000000000045
:1019A0000000000080018001000000000000000035
:1019B0000000000000000000000000000000000027
:1019C0008001800100000000000000000000000015
:1019D0000000000080018001000100018000000083
:1019E00000000000000000000000000000000000F7
:1019F000000000000010001C800FE003F800180039
:101A0000F800E003800F001C001000000000000040
:101A100000000000000000000000000000000000C6
:101A200000000000F81F000000000000F81F000088
:101A300000000000000000000000000000000000A6
:101A40000000000000000000000000000000000096
:101A50000000000008003800F001C007001F001857
:101A6000001FC007F001380008000000000000005F
:101A7000000000000000E003F80F180C0C180C1810
:101A80000018000C000600038001C000C000C00068
:101A900000000000C000C0000000000000000000C6
:101AA0000000000000000000E00718180420C22910
:101AB000224A114409440944094409221113E20C41
:101AC000024004201818E007000000000000000099
:101AD00000000000000080038003C006C006C006AE
:101AE000600C600C301830183018F83FF83F1C704C
:101AF0000C600C6006C006C0000000000000000082
:101B0000000000000000FC03FC0F0C0C0C180C186B
:101B10000C180C0CFC07FC0F0C180C300C300C30A3
:101B20000C300C18FC1FFC07000000000000000037
:101B3000000000000000C007F01F38381C300C7097
:101B400006600600060006000600060006000660A5
:101B50000C701C30F01FE0070000000000000000C7
:101B6000000000000000FE03FE0F060E0618061817
:101B700006300630063006300630063006300618CD
:101B80000618060EFE0FFE03000000000000000015
:101B9000000000000000FC3FFC3F0C000C000C00AB
:101BA0000C000C00FC1FFC1F0C000C000C000C00B7
:101BB0000C000C00FC3FFC3F000000000000000097
:101BC000000000000000F83FF83F1800180018005F
:101BD00018001800F81FF81F180018001800180047
:101BE0001800180018001800000000000000000095
:101BF000000000000000E00FF83F3C780E6006E0B7
:101C000007C00300030003FE03FE03C007C006C0B5
:101C10000EC03CF0F83FE00F0000000000000000A4
:101C20000000000000000C300C300C300C300C3088
:101C30000C300C30FC3FFC3F0C300C300C300C30C6
:101C40000C300C300C300C300000000000000000A4
:101C500000000000000080018001800180018001FF
:101C6000800180018001800180018001800180016C
:101C70008001800180018001000000000000000060
:101C80000000000000000006000600060006000636
:101C900000060006000600060006000600061806FC
:101CA00018063807F003E001000000000000000003
:101CB00000000000000006300618060C06060603A9
:101CC0008601C60066007600DE008E010603060669
:101CD000060C061806300660000000000000000038
:101CE000000000000000180018001800180018007C
:101CF0001800180018001800180018001800180024
:101D000018001800F81FF81F000000000000000075
:101D10000000000000000EE01EF01EF01EF036D89D
:101D200036D836D836D866CC66CC66CCC6C6C6C6DB
:101D3000C6C6C6C686C386C30000000000000000F9
:101D40000000000000000C301C303C303C306C3097
:101D50006C30CC30CC308C310C330C330C360C3630
:101D60000C3C0C3C0C380C30000000000000000063
:101D7000000000000000E007F81F1C380E7006602D
:101D800003C003C003C003C003C003C003C0066098
:101D90000E701C38F81FE007000000000000000073
:101DA000000000000000FC0FFC1F0C380C300C3051
:101DB0000C300C300C18FC1FFC070C000C000C0045
:101DC0000C000C000C000C000000000000000000E3
:101DD000000000000000E007F81F1C380E700660CD
:101DE00003E003C003C003C003C003C007E00663F1
:101DF0000E3F1C3CF83FE0F700C000000000000070
:101E0000000000000000FE0FFE1F063806300630FE
:101E100006300638FE1FFE0706030606060C0618E7
:101E200006180630063006600000000000000000C2
:101E3000000000000000E003F80F1C0C0C180C1848
:101E40000C001C00F803E00F001E003806300630BE
:101E50000E301C1CF80FE00700000000000000001E
:101E6000000000000000FE7FFE7F800180018001F5
:101E7000800180018001800180018001800180015A
:101E8000800180018001800100000000000000004E
:101E90000000000000000C300C300C300C300C3016
:101EA0000C300C300C300C300C300C300C300C3052
:101EB0000C301818F81FE0070000000000000000B8
:101EC00000000000000003600630063006300C18E9
:101ED0000C180C18180C180C380E30063006700749
:101EE00060036003C001C0010000000000000000AA
:101EF0000000000000000360C361C361C36166337A
:101F0000663366336633663366336C1B6C1B6C1B3F
:101F10002C1A3C1E380E380E000000000000000095
:101F20000000000000000FE00C7018303018700C3A
:101F3000600EC00780038003C003E006700C301CF5
:101F400018180C300E6007E00000000000000000D0
:101F500000000000000003C006600C301C38381878
:101F6000300C6006E007C003800180018001800121
:101F7000800180018001800100000000000000005D
:101F8000000000000000FC7FFC7F006000300018B3
:101F9000000C000600038001C00060003000180043
:101FA0000C000600FE7FFE7F000000000000000025
:101FB000000000000000E003E0036000600060003B
:101FC0006000600060006000600060006000600011
:101FD0006000600060006000600060006000E0037E
:101FE000E00300000000300030006000600060008E
:101FF000C000C000C000C00180018001800100035A
:1020000000030003000600060000000000000000BE
:10201000000000000000E003E003000300030003F1
:102020000003000300030003000300030003000398
:102030000003000300030003000300030003E003A8
:10204000E003000000000000C001C0016003600365
:10205000600330063006180C180C00000000000069
:102060000000000000000000000000000000000070
:102070000000000000000000000000000000000060
:102080000000000000000000000000000000000050
:10209000000000000000FFFFFFFF00000000000044
:1020A0000000000000000C000C000C000C000C00F4
:1020B0000C00000000000000000000000000000014
:1020C0000000000000000000000000000000000010
:1020D0000000000000000000000000000000000000
:1020E000F003F8071C0C0C0C000FF00FF80C0C0C94
:1020F0000C0C1C0FF80FF01800000000000000008E
:102100000000000000001800180018001800180057
:10211000D803F80F380C18181818181818181818A9
:102120001818380CF80FD803000000000000000059
:10213000000000000000000000000000000000009F
:10214000C003F007300E180C180018001800180013
:10215000180C300EF007C003000000000000000063
:1021600000000000000000180018001800180018F7
:10217000C01BF01F301C1818181818181818181839
:102180001818301CF01FC01B0000000000000000E9
:10219000000000000000000000000000000000003F
:1021A000C003F00F300C1818F81FF81F18001800A3
:1021B0003818301CF00FC0070000000000000000BD
:1021C000000000000000800FC00FC000C000C00071
:1021D000F007F007C000C000C000C000C000C00091
:1021E000C000C000C000C0000000000000000000EF
:1021F00000000000000000000000000000000000DF
:10220000E00DF80F180E0C0C0C0C0C0C0C0C0C0C3C
:102210000C0C180EF80FE00D000C0C0C1C06F80747
:10222000F001000000001800180018001800180045
:10223000D807F80F381C1818181818181818181874
:1022400018181818181818180000000000000000CE
:10225000000000000000C000C000000000000000FE
:10226000C000C000C000C000C000C000C000C0006E
:10227000C000C000C000C00000000000000000005E
:10228000000000000000C000C000000000000000CE
:10229000C000C000C000C000C000C000C000C0003E
:1022A000C000C000C000C000C000C000C000F800F6
:1022B0007800000000000C000C000C000C000C006A
:1022C0000C0C0C060C038C01CC006C00FC009C0177
:1022D0008C030C030C060C0C000000000000000036
:1022E000000000000000C000C000C000C000C0002E
:1022F000C000C000C000C000C000C000C000C000DE
:10230000C000C000C000C0000000000000000000CD
:1023100000000000000000000000000000000000BD
:102320007C3CFF7EC7E383C183C183C183C183C17A
:1023300083C183C183C183C100000000000000008D
:10234000000000000000000000000000000000008D
:102350009807F80F381C1818181818181818181893
:1023600018181818181818180000000000000000AD
:10237000000000000000000000000000000000005D
:10238000C003F00F300C181818181818181818185F
:102390001818300CF00FC00300000000000000000F
:1023A000000000000000000000000000000000002D
:1023B000D803F80F380C1818181818181818181807
:1023C0001818380CF80FD803180018001800180057
:1023D00018000000000000000000000000000000E5
:1023E000C01BF01F301C18181818181818181818C7
:1023F0001818301CF01FC01B001800180018001817
:1024000000180000000000000000000000000000B4
:10241000B007F003700030003000300030003000B2
:1024200030003000300030000000000000000000EC
:10243000000000000000000000000000000000009C
:10244000E003F003380E180C3800F003C007000C4E
:10245000180C380EF007E003000000000000000038
:1024600000000000000000008000C000C000C000AC
:10247000F007F007C000C000C000C000C000C000EE
:10248000C000C000C007800700000000000000007E
:10249000000000000000000000000000000000003C
:1024A00018181818181818181818181818181818AC
:1024B0001818381CF01FE019000000000000000090
:1024C000000000000000000000000000000000000C
:1024D0000C18180C180C180C300630063006600367
:1024E00060036003C001C0010000000000000000A4
:1024F00000000000000000000000000000000000DC
:10250000C141C141C3616363636363633636363679
:1025100036361C1C1C1C1C1C0000000000000000A7
:1025200000000000000000000000000000000000AB
:102530001C38381C300C6006C003C003C003C00345
:102540006006300C381C1C38000000000000000041
:10255000000000000000000000000000000000007B
:102560001830301830187018600C600CE00CC00681
:10257000C00680038003800380018001C001F00059
:1025800070000000000000000000000000000000DB
:10259000FC1FFC1F000C000600038001C00060004F
:1025A00030001800FC1FFC1F0000000000000000AD
:1025B00000000000000000038001C000C000C00057
:1025C000C000C000C000600060003000600040003B
:1025D000C000C000C000C000C000C00080010003F7
:1025E0000000000000008001800180018001800166
:1025F00080018001800180018001800180018001D3
:1026000080018001800180018001800180018001C2
:102610008001000000006000C000C0018001800156
:102620008001800180010003000300060003000117
:10263000800180018001800180018001C000600074
:10264000000000000000000000000000000000008A
:1026500000000000F010F81F080F0000000000004C
:10266000000000000000000000000000000000006A
:10267000000000000000000000000000000000005A
:10268000000000000000000000000000000000004A
:10269000000000000000000000000000000000003A
:1026A0000000000000000000000000000000C00367
:1026B000300C081004200420024002400240024076
:1026C0000240042004200810300CC0030000000069
:1026D0000000000000000000000000000000C00337
:1026E000F00FF81FFC3FFC3FFE7FFE7FFE7FFE7F6A
:1026F000FE7FFC3FFC3FF81FF00FC003000000000E
:1027000000000000000000000000000000000000C9
:102710000000E007F00F18181818181818181818E3
:102720001818F00FE0070000000000000000000093
:102730000000000000000000000000000000000099
:102740000000E007F00FF81FF81FF81FF81FF81F30
:10275000F81FF00FE007000000000000000000007C
:102760000000000000000000000000000000000069
:102770000000000000000000000000008001C00315
:102780006006300C18181818F81FF81F0000000019
:102790000000000000000000000000000000000039
:1027A0000000000000000000000000008001C003E5
:1027B000E007F00FF81FF81FF81FF81F00000000D7
:1027C000000000000000000000000000F81FF81FDB
:1027D00018181818300C6006C003800100000000B3
:1027E00000000000000000000000000000000000E9
:1027F000000000000000000000000000F81FF81FAB
:10280000F81FF81FF00FE007C00380010000000070
:1028100000000000000000000000000000000000B8
:1028200000000000000000000000000000000000A8
:102830000000E001F00198018C01860186018C0105
:102840009801F001E001000000000000000000001D
:102850000000000000000000000000000000000078
:102860000000E001F001F801FC01FE01FE01FC01A5
:10287000F801F001E001000000000000000000008D
:102880000000000000000000000000000000000048
:1028900000008007800F8019803180618061803165
:1028A0008019800F80070000000000000000000079
:1028B0000000000000000000000000000000000018
:1028C00000008007800F801F803F807F807F803FD7
:1028D000801F800F80070000000000000000000043
:1028E000000000000000C00120022002400130066C
:1028F0000808080808080808080808080808200246
:1029000020022002200220022002200220022002B7
:10291000200200000000C001E003E003C001F00756
:10292000D80DD80DD80DD80DD80DD80DD80D600301
:10293000600360036003600360036003600360037F
:10294000600300000000C0012002200240013006A8
:10295000080808080808041002200220400120028C
:102960002002100408080808041004100420044081
:10297000000000000000C001E003E003C001F00718
:10298000D80DD80DD80DCC19C631C261C001600375
:1029900060037006380C180C0C180C180C300C6006
:1029A00000000000C4290000000000104C000000DE
:1029B00024140000102A00004C0000104402000003
:1029C0003214000000093D0000000000000000007B
:1029D00000000000000000000000000000000000F7
:1029E000000000000000000030313233343536374B
:1029F000383941424344454654783A202020202C1F
:102A000052783A20202020000000FFFF0000000044
:04000005000000C532
:00000001FF
