:020000040000FA
:1000000068020010F9010000FD010000FF0100007E
:1000100001020000030200000502000000000000D1
:1000200000000000000000000000000007020000C7
:1000300009020000000000000B0200000D02000099
:100040000F0200000F0200000F0200000F0200006C
:100050000F0200000F0200000F0200000F0200005C
:100060000F0200000F0200000F0200000F0200004C
:100070000F0200000F0200000F0200000F0200003C
:100080000F0200000F0200000F0200000F0200002C
:100090000F0200000F0200000F0200000F0200001C
:1000A0000F0200000F0200000F0200000F0200000C
:1000B0000F0200000F0200000F0200000F020000FC
:1000C0000F0200000F0200000F02000000F002F813
:1000D00000F03CF80AA090E8000C82448344AAF1A6
:1000E0000107DA4501D100F031F8AFF2090EBAE8A4
:1000F0000F0013F0010F18BFFB1A43F0010318475C
:10010000C0030000E0030000103A24BF78C878C1A3
:10011000FAD8520724BF30C830C144BF04680C600D
:10012000704700000023002400250026103A28BF55
:1001300078C1FBD8520728BF30C148BF0B60704759
:100140001FB5AFF300801FBD10B510BD00F07DF9E5
:100150001146FFF7F5FF00F014F800F09BF9FFF7E8
:10016000F3FF00F0A1F90000002207E0002100E009
:10017000491C40F2FB439942FADB521C8242F5DBF8
:10018000704770B500F052F81A48006A40F0FF60FE
:10019000184908620846C06B40F0FF60C86327E05A
:1001A00013251A240CE00120A8400121A140084396
:1001B000104988634FF47A70FFF7D6FF6D1C641EF8
:1001C000162D01DC172CEEDA162517240CE0012180
:1001D000A9400120A04001430648C1634FF47A7052
:1001E000FFF7C2FF6D1E641C132D01DB1A2CEEDD20
:1001F000D6E7000000C0092008480047FEE7FEE7F8
:10020000FEE7FEE7FEE7FEE7FEE7FEE7FEE7FEE7C6
:1002100003480449024A044B70470000CD00000027
:1002200068000010680200106800001020207F495C
:10023000086000BF7D48006810F0400FFAD003202E
:100240007A499C39086000207949C1F8A8017749AA
:100250000C31086001207549943908600B207449FD
:10026000843108600120091F0860AA2070498C3180
:10027000086055206E49C1F88C0000BF6C4888307A
:10028000006810F0806FF9D0032069498031086060
:10029000AA206749C1F88C00552065498C31086057
:1002A00023206349A43108600120091F0860AA20A7
:1002B0005F49AC3108605520086000BF5C48A83039
:1002C000006810F4806FF9D003205949A03108600C
:1002D000AA205749C1F8AC0055205549AC310860F7
:1002E00054485349C431086000205149C1F8C8013D
:1002F0000846D0F88800C0F30160032860D14B485D
:100300009438006810F0030006D0012820D002289D
:1003100039D0032853D100E000BF45488830006839
:10032000C0F30E00401C41004148D0F88800C0F3E3
:100330000740401CB1FBF0F13F4841433B489C382B
:100340000068C0B2401CB1FBF0F03C49086036E0E8
:10035000374888300068C0F30E00401C4100344824
:10036000D0F88800C0F30740401CB1FBF0F13448DE
:1003700041432E489C380068C0B2401CB1FBF0F0ED
:100380002E4908601BE02A4888300068C0F30E0040
:10039000401C41002648D0F88800C0F30740401CAC
:1003A000B1FBF0F14FF4FA40414320489C3800681B
:1003B000C0B2401CB1FBF0F02049086000BF30E043
:1003C0001A489438006810F0030006D0012810D0B5
:1003D000022819D0032823D100E000BF13489C381D
:1003E0000068C0B2401C1449B1FBF0F0134908602A
:1003F00016E00E489C380068C0B2401C1049B1FBA2
:10040000F0F00E4908600BE008489C380068C0B264
:10041000401C4FF4FA41B1FBF0F00849086000BFFE
:1004200000BF43F23A00024908607047A0C10F4084
:1004300000C00F40DE87280400093D0000000010C6
:10044000001BB700704770477047754600F028F8EA
:10045000AE4605006946534620F00700854618B0B1
:1004600020B5FFF7D5FEBDE820404FF000064FF065
:1004700000074FF000084FF0000B21F00701AC46D9
:10048000ACE8C009ACE8C009ACE8C009ACE8C009F8
:100490008D4670470446AFF300802046FFF75FFEAD
:1004A000004870470400001003494FF01800ABBE2D
:1004B000704700000900000026000200704700009D
:1004C000E00400000000001004000000080100002B
:1004D000E404000004000010640200002401000095
:0404E00000093D00D2
:04000005000001F9FD
:00000001FF
