:020000040000FA
:100000006002001045010000490100004B010000A2
:100010004D0100004F0100005101000000000000F0
:10002000000000000000000000000000530100007C
:1000300055010000000000005701000059010000B8
:100040005B0100005B0100005B0100005B01000040
:100050005B0100005B0100005B0100005B01000030
:100060005B0100005B0100005B0100005B01000020
:100070005B0100005B0100005B0100005B01000010
:100080005B0100005B0100005B0100005B01000000
:100090005B0100005B0100005B0100005B010000F0
:1000A0005B0100005B0100005B0100005B010000E0
:1000B0005B0100005B0100005B0100005B010000D0
:1000C0005B01000000F002F800F02EF80AA090E8B2
:1000D000000C82448344AAF10107DA4501D100F003
:1000E00023F8AFF2090EBAE80F0013F0010F18BFA2
:1000F000FB1A43F001031847200200003002000001
:100100000023002400250026103A28BF78C1FBD820
:10011000520728BF30C148BF0B6070471FB5AFF30F
:1001200000801FBD10B510BD00F0B9F81146FFF7F3
:10013000F5FF00F03CF800F0D7F8FFF7F3FF00F010
:10014000DFF8000008480047FEE7FEE7FEE7FEE7AD
:10015000FEE7FEE7FEE7FEE7FEE7FEE703480449A9
:10016000024A044B70470000C50000006000001008
:100170006002001060000010434988604021434A3B
:10018000D16100BF4049C96811F0010FFAD0402188
:100190003E4A91617047002206E0002100E0491CC0
:1001A000B1F5FA6FFBD3521C8242F6D3704700B50B
:1001B0004FF44010364908603648006840F4282063
:1001C000344908600846006820F4A82008602F48D9
:1001D000006840F040002D490860CF202A4908609F
:1001E000022048601820086140F60F10FFF7C4FF96
:1001F00040F60F20FFF7C0FF40F60330FFF7BCFFCB
:1002000040F60140FFF7B8FF40F60170FFF7B4FF7A
:100210004FF4FA70FFF7BFFF4FF47060FFF7ACFFC9
:1002200031E040F20110FFF7A7FF6420FFF7B3FFB2
:1002300040F20720FFF7A0FF6420FFF7ACFF40F279
:100240000630FFF799FF6420FFF7A5FF4FF48160A8
:10025000FFF792FF40F2FF10FFF78EFF6420FFF7D9
:100260009AFF40F2FF20FFF787FF6420FFF793FF1C
:1002700040F2FF30FFF780FF6420FFF78CFF40F271
:10028000FF40FFF779FFCCE70000034000C00920E2
:10029000A8C10F4000C002407047704770477546C4
:1002A00000F028F8AE4605006946534620F00700E6
:1002B000854618B020B5FFF751FFBDE820404FF04C
:1002C00000064FF000074FF000084FF0000B21F040
:1002D0000701AC46ACE8C009ACE8C009ACE8C0090D
:1002E000ACE8C0098D4670470446AFF30080204655
:1002F000FFF723FF0048704700000010FFFFFFFFDB
:1003000003494FF01800ABBE704700000900000021
:1003100026000200704700002803000000000010C3
:08032000600200000001000072
:0400000500000145B1
:00000001FF
