:1005BB00D3EF9400EE940040147D7A7C00ED1D7017
:0D05CB00011CED4C70F7EF1F70E61E80E381
:0105D8002200
:0D061900454550524F4D20544553543A0072
:10044F0012049F7F801206567BFF7A0679191205D8
:10045F0050752A3020A716AB2AE4FD7FA012057530
:10046F00E4FD7FA01205F38F2A7FC0801920A61EFE
:10047F00052AAB2A7D0A7FA01205757D0A7FA0127F
:10048F0005F38F2A7FC3120656AF2A12065B80FE32
:03066000C2A12212
:09063D00C2A0D2A1D2A0C2A122E8
:09064600C2A0C2A1D2A0D2A122DF
:05059900AB0512066035
:10059E00E4FEC2A0C374079EFDEFA805088002C347
:0C05AE0013D8FC1392A1D2A00EBE08E6E8
:0105BA00221E
:10052500E4FEC2A0D2A030A10F7480A80608800204
:10053500C313D8FC4207800E7480A806088002C346
:0A05450013D8FCF452070EBE08D8CC
:01054F002289
:1005D90012059E1205E912063DEC4401FF12059E23
:0A05E900C2A0D2A1D2A020A1FD22E1
:07064F00C2A0D2A1D2A0223B
:0B063200C2A0C2A1D2A0C2A0D2A1228F
:10057500AE07AC031205991205E9AF0312059E12E9
:1005850005E9AF0412059E1205E91206467F0A7EAB
:04059500000205BBA0
:0205F300AC0753
:1005F5001205991205E9AF031205D9120525120650
:040605004F12064644
:0106090022CE
:0804E3008B208A218922AC055F
:1004EB0012066012059E1205E9AF0412059E120555
:1004FB00E9E4FCECC395235017AB200522E522AAB7
:10050B00217002052114F912018A1205E50C80E312
:0A051B001206467F0A7E000205BBAF
:0A0392008D258B268A278928AC07E9
:10039C0012066012059E1205E9AF251205D9E4FD7F
:1003AC00E52914FFEDC39F5018120525AB26AA278B
:1003BC00A9288D82758300EF1201A31206320D80DD
:1003CC00DF120525AB26AA27A928AE050D8E82754E
:1003DC008300EF1201A38D82758300E41201A31236
:0503EC00064F02064669
:10049F007F107E001205BB7F301206567F067E004E
:1004AF001205BB7F301206567F017E001205BB7FFF
:1004BF00301206567F017E001205BB7F381206569A
:1004CF007F101206567F011206567F061206567FC0
:0404DF000F020656AC
:05065600C2B402060A17
:05065B00D2B402060A02
:0F060A00C2B58F80D2B6C2B67F027E000205BB9A
:100550008B2B8A2C892DAB2BAA2CA92D12018A60FA
:1005600013052DE52D7002052C14F912018AFF12D6
:05057000065B80E222A1
:04032C008E088F099F
:10033000E4F514C3E5086480948050107F2D120604
:100340005BC3E49509F509E49508F508AE08AF0923
:100350007C007D0A1201C5ED2430FFAE1405147433
:100360000A2EF8A607AE08AF097C007D0A1201C567
:100370008E088F09E509450870D2D3E5146480948E
:1003800080400E74092514F8E6FF12065B151480F0
:01039000E983
:010391002249
:0803F1008F188E178D168C1574
:1003F9001201098F1D8E1C8D1B8C1A12032C7F2E46
:1004090012065BD3E519648094804039AF18AE17A2
:10041900AD16AC15E4FBFA792078411200038F1868
:100429008E178D168C151201098F1D8E1C8D1B8C34
:100439001AE47B0AFAF9F8120237EB2430FF1206A4
:050449005B151980BEE7
:01044E00228B
:10000300EC4D6011E8497017ED33EC3304600DE4F7
:10001300FCFFFEFD22E933E8330470F80201751298
:10002300014058046009E4CC248150062850090299
:10003300017F28400302017CC0E0EB4A7044B98091
:1000430006D0E0FB02016BEF4E701CBD8008EBFF96
:10005300EAFEE9FD80EBE98DF0A4FEE5F00200EC99
:10006300E9CDF9EAFEEBFFEF89F0A4FCE5F0CE89D8
:10007300F0A42EFFE435F0CD89F0A42DFEE435F095
:100083008067EF4E7005BD80D780C3EF8BF0A4ACC3
:10009300F0EE8BF0A42CFCE435F0F8EF8AF0A42CFE
:1000A300E5F038FCE433CB8DF0A42CFCE5F03BF811
:1000B300EE8AF0A42CFCE5F038F8E433CF89F0A401
:1000C3002CFCE5F038CF3400CE89F0A42FFFE5F007
:1000D3003EFEE433C98DF0A42EFEE5F039CD8AF05F
:1000E300A42FFFE5F03EFEE43DFD33D0E0FB5007D7
:1000F3000BBB000F02017FEC2CFCEF33FFEE33FE52
:06010300ED33FD0201577F
:10010900EDD2E7CD33EC3392D524814006E4FFFEEE
:10011900FDFC22FCE4CFCECDCC24E0501174FF804D
:10012900EDC3CC13CCCD13CDCE13CECF13CF0470EA
:07013900F030D5DE0202C91F
:10014000E9D2E7C933E833F892D5EDD2E7CD33EC05
:0701500033FC5002B2D5227E
:10015700EC30E7100FBF000C0EBE00080DBD000409
:100167000BEB6014A2D5EB13FCED92E7FD2274FFB5
:10017700FCFDFEFF22E480F8A2D574FF13FC7D800E
:03018700E480EF22
:03000000020626CF
:0C062600787FE4F6D8FD75812D02044FAA
:10018A00BB010689828A83E0225002E722BBFE0273
:09019A00E32289828A83E49322A6
:1001A300F8BB010DE58229F582E5833AF583E8F092
:1001B300225006E92582C8F622BBFE05E92582C83E
:0201C300F22226
:1001C500C2D5EC30E709B2D5E4C39DFDE49CFCEE55
:1001D50030E715B2D5E4C39FFFE49EFE1202D7C3F4
:1001E500E49DFDE49CFC80031202D730D507C3E4EF
:0601F5009FFFE49EFE22C4
:1001FB0075F008758200EF2FFFEE33FECD33CDCCBB
:10020B0033CCC58233C5829BED9AEC99E58298403D
:10021B000CF582EE9BFEED9AFDEC99FC0FD5F0D61A
:10022B00E4CEFBE4CDFAE4CCF9A88222B800C1B944
:10023B000059BA002DEC8BF084CFCECDFCE5F0CB82
:10024B00F97818EF2FFFEE33FEED33FDEC33FCEBBB
:10025B0033FB10D703994004EB99FB0FD8E5E4F976
:10026B00FA227818EF2FFFEE33FEED33FDEC33FC63
:10027B00C933C910D7059BE99A4007EC9BFCE99A57
:10028B00F90FD8E0E4C9FAE4CCFB2275F010EF2F9C
:10029B00FFEE33FEED33FDCC33CCC833C810D7079C
:1002AB009BEC9AE899400AED9BFDEC9AFCE899F8D7
:0E02BB000FD5F0DAE4CDFBE4CCFAE4C8F9226A
:0E02C900C3E49FFFE49EFEE49DFDE49CFC2246
:1002D700BC000BBE0029EF8DF084FFADF022E4CC0B
:1002E700F875F008EF2FFFEE33FEEC33FCEE9DECD4
:1002F700984005FCEE9DFE0FD5F0E9E4CEFD22ED1A
:10030700F8F5F0EE8420D21CFEADF075F008EF2F63
:10031700FFED33FD4007985006D5F0F222C398FD54
:050327000FD5F0EA22F1
:00000001FF
