:10052800D3EF9400EE940040147D7A7C00ED1D70AA
:0D053800011CED4C70F7EF1F70E61E80E314
:010545002293
:0C05550031323334353637383923302A40
:09056D00C2A3C2A2C2A1C2A022D5
:09057600A2A582A482A682A7229C
:10030A0012056DA2A582A482A682A740F6C2A0D237
:10031A00A3D2A2D2A1A2A582A482A682A74005E462
:10032A00F5368043C2A1D2A3D2A2D2A0A2A582A4AA
:10033A0082A682A74005753601802CC2A2D2A3D21A
:10034A00A1D2A0A2A582A482A682A74005753602E0
:10035A008015C2A3D2A2D2A1D2A0A2A582A482A6AB
:10036A0082A7400375360320A405E4F537801320DD
:10037A00A505753701800B20A60575370280037520
:10038A003703A2A582A482A682A750F6AF36EF331E
:10039A0095E0FEEF7802C333CE33CED8F92455F573
:1003AA008274053EF583AF37EF3395E0FEE5822F81
:0A03BA00F582E5833EF583E493FF2E
:0103C4002216
:100489007F107E001205287F3012057F7F067E00CF
:100499001205287F3012057F7F017E001205287F13
:1004A9003012057F7F017E001205287F3812057FF3
:1004B9007F1012057F7F0112057F7F0612057F7F5E
:0404C9000F02057F9A
:05057F00C2B4020546B4
:05058400D2B40205469F
:0F054600C2B58F80D2B6C2B67F027E00020528F2
:100503008B1D8A1E891FAB1DAA1EA91F12018A609B
:1005130013051FE51F7002051E14F912018AFF124D
:05052300058480E222C6
:0403C5008E208F21D6
:1003C900E4F52CC3E5206480948050107F2D12053C
:1003D90084C3E49521F521E49520F520AE20AF21D1
:1003E9007C007D0A1201A3ED2430FFAE2C052C748C
:1003F900222EF8A607AE20AF217C007D0A1201A3A8
:100409008E208F21E521452070D2D3E52C6480947C
:1004190080400E7421252CF8E6FF120584152C80E6
:01042900E9E9
:01042A0022AF
:08042B008F308E2F8D2E8C2DD9
:100433001201098F358E348D338C321203C57F2E12
:10044300120584D3E531648094804039AF30AE2FF8
:10045300AD2EAC2DE4FBFA792078411200038F30E6
:100463008E2F8D2E8C2D1201098F358E348D338C6A
:1004730032E47B0AFAF9F8120215EB2430FF120575
:0504830084153180BE6C
:010488002251
:1004CD00E4F51C1204897F8012057F12030AEF6484
:1004DD0023600B7408251CF8A607051C80ED740716
:1004ED00251CF8E4F67FC8FE1205287B007A0079FA
:0604FD000812050380D582
:10000300EC4D6011E8497017ED33EC3304600DE4F7
:10001300FCFFFEFD22E933E8330470F80201751298
:10002300014058046009E4CC248150062850090299
:10003300017F28400302017CC0E0EB4A7044B98091
:1000430006D0E0FB02016BEF4E701CBD8008EBFF96
:10005300EAFEE9FD80EBE98DF0A4FEE5F00200EC99
:10006300E9CDF9EAFEEBFFEF89F0A4FCE5F0CE89D8
:10007300F0A42EFFE435F0CD89F0A42DFEE435F095
:100083008067EF4E7005BD80D780C3EF8BF0A4ACC3
:10009300F0EE8BF0A42CFCE435F0F8EF8AF0A42CFE
:1000A300E5F038FCE433CB8DF0A42CFCE5F03BF811
:1000B300EE8AF0A42CFCE5F038F8E433CF89F0A401
:1000C3002CFCE5F038CF3400CE89F0A42FFFE5F007
:1000D3003EFEE433C98DF0A42EFEE5F039CD8AF05F
:1000E300A42FFFE5F03EFEE43DFD33D0E0FB5007D7
:1000F3000BBB000F02017FEC2CFCEF33FFEE33FE52
:06010300ED33FD0201577F
:10010900EDD2E7CD33EC3392D524814006E4FFFEEE
:10011900FDFC22FCE4CFCECDCC24E0501174FF804D
:10012900EDC3CC13CCCD13CDCE13CECF13CF0470EA
:07013900F030D5DE0202A741
:10014000E9D2E7C933E833F892D5EDD2E7CD33EC05
:0701500033FC5002B2D5227E
:10015700EC30E7100FBF000C0EBE00080DBD000409
:100167000BEB6014A2D5EB13FCED92E7FD2274FFB5
:10017700FCFDFEFF22E480F8A2D574FF13FC7D800E
:03018700E480EF22
:0300000002056195
:0C056100787FE4F6D8FD7581370204CDE8
:10018A00BB010689828A83E0225002E722BBFE0273
:09019A00E32289828A83E49322A6
:1001A300C2D5EC30E709B2D5E4C39DFDE49CFCEE77
:1001B30030E715B2D5E4C39FFFE49EFE1202B5C338
:1001C300E49DFDE49CFC80031202B530D507C3E433
:0601D3009FFFE49EFE22E6
:1001D90075F008758200EF2FFFEE33FECD33CDCCDD
:1001E90033CCC58233C5829BED9AEC99E582984060
:1001F9000CF582EE9BFEED9AFDEC99FC0FD5F0D63D
:10020900E4CEFBE4CDFAE4CCF9A88222B800C1B966
:100219000059BA002DEC8BF084CFCECDFCE5F0CBA4
:10022900F97818EF2FFFEE33FEED33FDEC33FCEBDD
:1002390033FB10D703994004EB99FB0FD8E5E4F998
:10024900FA227818EF2FFFEE33FEED33FDEC33FC85
:10025900C933C910D7059BE99A4007EC9BFCE99A79
:10026900F90FD8E0E4C9FAE4CCFB2275F010EF2FBE
:10027900FFEE33FEED33FDCC33CCC833C810D707BE
:100289009BEC9AE899400AED9BFDEC9AFCE899F8F9
:0E0299000FD5F0DAE4CDFBE4CCFAE4C8F9228C
:0E02A700C3E49FFFE49EFEE49DFDE49CFC2268
:1002B500BC000BBE0029EF8DF084FFADF022E4CC2D
:1002C500F875F008EF2FFFEE33FEEC33FCEE9DECF6
:1002D500984005FCEE9DFE0FD5F0E9E4CEFD22ED3C
:1002E500F8F5F0EE8420D21CFEADF075F008EF2F86
:1002F500FFED33FD4007985006D5F0F222C398FD77
:050305000FD5F0EA2213
:00000001FF
