:020000040000FA
:100000006002001045010000490100004B010000A2
:100010004D0100004F0100005101000000000000F0
:10002000000000000000000000000000530100007C
:1000300055010000000000005701000059010000B8
:100040005B0100005B0100005B0100005B01000040
:100050005B0100005B0100005B0100005B01000030
:100060005B0100005B0100005B0100005B01000020
:100070005B0100005B0100005B0100005B01000010
:100080005B0100005B0100005B0100005B01000000
:100090005B0100005B0100005B0100005B010000F0
:1000A0005B0100005B0100005B0100005B010000E0
:1000B0005B0100005B0100005B0100005B010000D0
:1000C0005B01000000F002F800F02EF80AA090E8B2
:1000D000000C82448344AAF10107DA4501D100F003
:1000E00023F8AFF2090EBAE80F0013F0010F18BFA2
:1000F000FB1A43F001031847540200006402000099
:100100000023002400250026103A28BF78C1FBD820
:10011000520728BF30C148BF0B6070471FB5AFF30F
:1001200000801FBD10B510BD00F0EAF81146FFF7C2
:10013000F5FF00F08AF800F0C8F8FFF7F3FF00F0D1
:10014000CFF8000008480047FEE7FEE7FEE7FEE7BD
:10015000FEE7FEE7FEE7FEE7FEE7FEE703480449A9
:10016000024A044B70470000C50000006000001008
:100170006002001060000010002206E0002100E094
:10018000491CB1F57A7FFBD3521C8242F6D37047EB
:1001900010B504464FF4FF004449C861E00388618C
:1001A0004FF48060C861400088613220FFF7E4FFAF
:1001B0004FF400603D49C86110BD00B53B48006880
:1001C0003B490843394908603820FFF7E1FF0E201A
:1001D000FFF7DEFF0120FFF7DBFF8020FFF7D8FFEE
:1001E00000BD10B504464FF4FF003049C861E0037C
:1001F00088614FF480608861400088613220FFF799
:10020000BBFF4FF400602949C86110BD10B504461A
:1002100003E02078FFF7E5FF641C20780028F8D180
:1002200010BD30B504467CB10A20B4FBF0F5284679
:10023000FFF7F7FF0A20B4FBF0F100FB114030306C
:10024000C5B22846FFF7CDFF30BD10B5FFF7B5FFAB
:100250001848006840F480501649C439C1F8C400F9
:100260001548406840F480201349486013481449F9
:10027000086019E000BF1248806910F0004FFAD002
:100280000F4880694FF6F07100EA010424090D203F
:10029000B4FBF0F42046FFF7C4FF4FF4FA70FFF709
:1002A0006BFF0120FFF774FFE4E7000000C00920A6
:1002B000008C7F00C4C00F4000C002400404210431
:1002C000004003407047704770470446AFF300801A
:1002D0002046FFF732FF0000004870470000001082
:1002E00003494FF01800ABBE704700000900000042
:1002F000260002007047000000000000FFFFFFFF23
:100300007546FFF7E9FFAE4605006946534620F003
:100310000700854618B020B5FFF720FFBDE8204054
:100320004FF000064FF000074FF000084FF0000BB1
:1003300021F00701AC46ACE8C009ACE8C009ACE864
:10034000C009ACE8C0098D46704700005C0300009E
:0C0350000000001060020000000100002E
:0400000500000145B1
:00000001FF
