:10114300D3EF9400EE940040147D7A7C00ED1D7083
:0D115300011CED4C70F7EF1F70E61E80E3ED
:01116000226C
:100F2900312E564F54494E4720322E50414E0033F0
:100F39002E41544D20342E45584954007761746927
:100F49006E672E2E2E0020464F5220564F54494E82
:100F5900472E2E2E00464F522050414E20444554D4
:100F690041494C5300464F522041544D2E2E2E00DC
:080F7900455849542E2E2E00AC
:100A4000E4F5301212161211B27F011211E27F800A
:100A50001211E27BFF7A0F79291210DD7FC012118B
:100A6000E27BFF7A0F79381210DD7F887E13121136
:100A7000437F011211E27F801211E27BFF7A0F792E
:100A8000451210DD7FD07E071211431212598F30AC
:100A9000EF60F8E53024CE602414603C14605424E8
:100AA0000370A67BFF7A0F794F1210DD7F011211C0
:100AB000E27FB87E0B121143120806808C7BFF7A0E
:100AC0000F795E1210DD7F011211E27FB87E0B12EA
:100AD0001143120BC1020A497BFF7A0F796E121083
:100AE000DD7FB87E0B1211437F011211E2120C67F9
:100AF000020A497BFF7A0F79791210DD7FB87E0BED
:060B0000121143020A4934
:10062500312E424A5020322E434F4E4752455353A6
:100635002000332E4C4F43414C5F504152545920BA
:10064500342E4E4F544100706C6561736520656EA4
:100655007465722070617274790077617474696E63
:10066500672E2E2E2E006E6F7720796F75277220DC
:10067500616468616268616B7420006E6F772079D0
:100685006F7520617265206368616D636861006CD8
:100695006F63616C207061727479006E6F74612094
:1006A5006E6F7461206E6F746100696E76616C693E
:1006B5006420696E70757400766F74696E67206466
:1006C5006F6E650072657475726E20746F206D654E
:1006D5006E75006E616D65200063617264206E75D4
:1006E5006D62657200706C6561736520656E746519
:1006F50072206F7074696F6E0050414E20434152F5
:100705004420484F4C44455200524148554C2053D3
:100715002E2042414E534F440050414E20434152FA
:1007250044204E554D4245520043445450423036C4
:1007350036394C00656E7465722074686520706981
:100745006E00656E7465722077697468647261778E
:10075500616C20616D6F756E74200052454D414985
:100765004E472042414C414E434500696E76616CCF
:10077500696420616D6D6F756E7400706C65617371
:10078500652074727920616761696E2E2E2E00696D
:100795006E76616C69642070617373776F72642023
:1007A50074727920616761696E2000656E74657287
:1007B500206465706F7369746500796F7572206266
:1007C500616C6C616E636500312E77697468647263
:1007D500617720322E6465706F736974652000330C
:1007E5002E636865636B20342E70696E20352E6527
:1007F50078697400696E76616C6964206B65790A45
:0108050000F2
:10106E00020C03E8020E04D20511313233340001B2
:0B107E000A00010B00011000011B0024
:10080600E4F5107F011211E27F801211E27BFF7A7C
:100816000679251210DD7FC01211E27BFF7A067978
:10082600371210DD7FE87E031211437F941211E226
:100836007BFF7A06794C1210DD7FD41211E27BFF22
:100846007A06795F1210DD7FD07E071211431212ED
:10085600598F10EF60F8E50A2430FBE4FD7FA01203
:1008660010B9E4FD7FA01211CB8F0AE50A600302DE
:100876000900E51024CE601C14602B14603A240392
:1008860070667F011211E27F801211E27BFF7A0609
:10089600796B80347F011211E27FC01211E27BFF77
:1008A6007A06798080227F011211E27FC01211E25E
:1008B6007BFF7A06799480107F011211E27FC012C5
:1008C60011E27BFF7A0679A01210DD7F887E131273
:1008D60011437F011211E2750A01E50A2430FBE497
:1008E600FD7FA01210B980317F011211E27F8012C4
:1008F60011E27BFF7A0679AF8015E50AB4011A7F0B
:10090600011211E27F801211E27BFF7A0679BD1295
:1009160010DD7FE87E031211437F011211E27FC0D2
:100926001211E27BFF7A0679C91210DD7FD07E07AD
:0309360002114368
:100BC100E4F5317F011211E27F801211E27BFF7A9D
:100BD1000679D81210DD7FC01211E27BFF7A067907
:100BE100DE1210DD7F941211E27BFF7A0679EA12A0
:100BF10010DD1212598F31EF60F87F011211E27B83
:100C0100FF7A06795F1210DD7FD07E07121143E56E
:100C11003124CE602304704D7F011211E27F8012D6
:100C210011E27BFF7A0679FE1210DD7FC01211E21C
:100C31007BFF7A07790E801E7F011211E27F8012FD
:100C410011E27BFF7A07791E1210DD7FC01211E2DB
:100C51007BFF7A07792E1210DD7F887E13121143F4
:050C61007F011211E209
:010C6600226B
:10093900E4F5107F011211E27F801211E27BFF7A48
:100949000779391210DD7FE87E03121143E4F51BA4
:100959001212598F0BBF0A0B7416251BF8A60B052B
:100969001B80ED7415251BF8E4F678117C00FDFB5E
:100979007A007916120608EF7003020A367BFF7AAD
:100989000779471210DD7FE87E03121143121259CD
:100999007508008F097FE87E03121143AE08AF097D
:1009A9007C007D64120446ED4C7050D3E509950D29
:1009B900E50C6480F8E508648098503FC3E50D951F
:1009C90009F50DE50C9508F50C7F011211E27FC0C0
:1009D9001211E27BFF7A0779601210DD7FE87E034E
:1009E9001211437F011211E27FC01211E2AF0DAE65
:1009F9000C120ECD7FD07E070211437F011211E246
:100A09007FC01211E27BFF7A0779701210DD7FD067
:100A19007E071211437F941211E27BFF7A077980D6
:100A29001210DD7FD07E071211430209867BFF7AFF
:060A39000779941210DDA4
:010A3F002294
:10100500E4F50B7BFF7A0779B01210DD7FE87E03EC
:101015001211431212598F0BEF60F8E50B250DF5F0
:101025000DE4350CF50C7F011211E27F801211E2FF
:0E103500AF0DAE0C120ECD7FE87E030211430C
:10117E007BFF7A0779BF1210DD7F011211E27F80AB
:0A118E001211E2AF0DAE0C020ECDFF
:01126B002260
:100C6700E4F5317F011211E27F801211E27BFF7AF6
:100C77000779CD1210DD7FE87E031211437FC01282
:100C870011E27BFF7A0779E41210DD7FE87E031219
:100C970011437F941211E27F011211E27BFF7A0662
:100CA70079EA1210DD7FE87E031211431212598F81
:100CB70031EF60F87FE87E031211437F011211E2E2
:100CC7007BFF7A06795F1210DD7FD07E0712114312
:100CD700E53124CE601014601014601014602324D2
:100CE70004700C02093902100502117E02126B7F93
:100CF700011211E27F801211E27BFF7A0779F91264
:020D070010DDFD
:010D090022C7
:03126800C2A122FE
:09122D00C2A0D2A1D2A0C2A122EC
:09123600C2A0C2A1D2A0D2A122E3
:05110000AB05121268AE
:10110500E4FEC2A0C374079EFDEFA805088002C3D4
:0C11150013D8FC1392A1D2A00EBE08E675
:0111210022AB
:10104300E4FEC2A0D2A030A10F7480A806088002DB
:10105300C313D8FC4207800E7480A806088002C31D
:0A10630013D8FCF452070EBE08D8A3
:01106D002260
:101198001211051211A812122DEC4401FF121105AB
:0A11A800C2A0D2A1D2A020A1FD2216
:07126100C2A0D2A1D2A0221D
:0B122200C2A0C2A1D2A0C2A0D2A12293
:1010B900AE07AC031211001211A8AF0312110512E9
:1010C90011A8AF041211051211A81212367F0A7E57
:0410D90000021143BD
:0211CB00AC076F
:1011CD001211001211A8AF0312119812104312122E
:0411DD006112123653
:0111E10022EB
:080F81008B588A59895AAC050E
:100F89001212681211051211A8AF041211051211DB
:100F9900A8E4FCECC3955B5017AB58055AE55AAA6F
:100FA900597002055914F91203B61211A40C80E301
:0A0FB9001212367F0A7E0002114377
:0A0E6E008D5D8B5E8A5F8960AC0722
:100E78001212681211051211A8AF5D121198E4FD43
:100E8800E56114FFEDC39F5018121043AB5EAA5FD3
:100E9800A9608D82758300EF1203CF1212220D8094
:100EA800DF121043AB5EAA5FA960AE050D8E827596
:100EB8008300EF1203CF8D82758300E41203CF12F3
:050EC800126102123668
:10120600000102030405060708090A0B0C0D0E0F60
:09123F00C2A3C2A2C2A1C2A022F6
:09124800A2A582A482A682A722BD
:100B060012123FA2A582A482A682A740F6C2A0D254
:100B1600A3D2A2D2A1A2A582A482A682A74005E45E
:100B2600F5658043C2A1D2A3D2A2D2A0A2A582A477
:100B360082A682A74005756501802CC2A2D2A3D2E7
:100B4600A1D2A0A2A582A482A682A74005756502AD
:100B56008015C2A3D2A2D2A1D2A0A2A582A482A6A7
:100B660082A7400375650320A405E4F5668013207B
:100B7600A505756601800B20A605756602800375BE
:100B86006603A2A582A482A682A750F6AF65EF33BC
:100B960095E0FEEF7802C333CE33CED8F92406F5BE
:100BA6008274123EF583AF66EF3395E0FEE5822F41
:0A0BB600F582E5833EF583E493FF2A
:010BC0002212
:0A108900083F1714141F05051D0091
:1011E200C2B48F80C2B5D2B67F027E00121143C252
:0211F200B62223
:1011F400D2B48F80C2B5D2B67F027E00121143C230
:02120400B62210
:1011B2007F381211E27F101211E27F011211E27FD9
:0911C2000E1211E27F800211E21D
:1010DD008B328A338934AB32AA33A9341203B6FF6B
:1010ED0060101211F474012534F534E43533F53301
:0310FD0080E4226A
:040ECD008E328F339F
:100ED100E4F53EE533453270057F301211F4E53318
:100EE10045326028AE32AF337C007D0A120446AF32
:100EF10005AE3E053E74342EF8A607AE32AF337C04
:100F0100007D0A1204468E328F3380D2153EC3E52E
:100F11003E6480948040107434253EF8E62430FF0E
:070F21001211F4153E80E7F8
:010F280022A6
:10112200E4F5677F401211E2E4F567743F2567F842
:10113200E6FF1211F40567C3E5676480948840EB0B
:01114200228A
:101161000D0A00526563656976656420737472695E
:0D1171006E67206973203A00000000000046
:0C121600759850758920758DFDD28E22D0
:081251008F993099FDC299222A
:081259003098FDC298AF992204
:101094008B628A638964AB62AA63A9641203B66033
:1010A400130564E5647002056314F91203B6FF12B4
:0510B400125180E22250
:040D96008E4F8F509D
:100D9A0078517C007D007BFF7A1179797E007F058E
:100DAA00120390E4FBE550454F70057F3002125163
:100DBA00D3E5509400E54F94004027AE4FAF507CE6
:100DCA00007D0A1203F1ED2430FF74512BF8A607B7
:100DDA00AE4FAF507C007D0A1203F18E4F8F500B3D
:100DEA0080CE1BC3EB64809480400C74512BF8E6D0
:070DFA00FF1212511B80ECF7
:010E010022CE
:080E02008F4A8E498D488C4790
:100E0A0012023F8E4C8F4D120D967F2E121251E414
:100E1A00F54EAD4EED3395E0FCC3ED954B7480F87D
:100E2A006C98503FAC4CAD4DE4120206A804A905DB
:100E3A00AA06AB07AF4AAE49AD48AC47120006E472
:100E4A00FBFA792078411200FB8F4A8E498D488C33
:100E5A004712023F8E4C8F4DEF2430FF121251057C
:030E6A004E80AF08
:010E6D002262
:100FC300E4FE121259741C2EF8A607741C2EF8E6C0
:100FD300640D6003BE1304E4F680030E80E47BFF1C
:100FE3007A1179611210947BFF7A1179641210944B
:100FF3007B007A00791C1210947BFF7A11796102CD
:02100300109447
:100003000202ABE86480F8E933E83360110460F07E
:10001300ED33EC337009E8FCE9FDEAFEEBFF220463
:1000230060DED3EB9FEA9EE99DE8C2E78CF0C2F75E
:1000330095F0400CE8CCF8E9CDF9EACEFAEBCFFB2A
:1000430012027685D0F05804700320D5B3E804700B
:10005300075002B2D50202B592D5EC0460F7E4CCA6
:10006300C0E0C398F8603B94186008400DD0E0FBF3
:1000730002028DE4FBFAC9FC8028E830E406E4C9F7
:10008300FBE4CAFCE830E305E4C9CACBFCE8540747
:100093006010F8C3E913F9EA13FAEB13FBEC13FC52
:1000A300D8F130F52FC3E49CFCEF9BFFEE9AFEEDF5
:1000B30099FDD0E0FBEF4E4D4C701222DB030202A0
:1000C300B2EC2CFCEF33FFEE33FEED33FDED30E706
:1000D300EB02028DEF2BFFEE3AFEED39FDD0E0FB94
:1000E30050130BBB00030202B5ED13FDEE13FEEF3D
:0800F30013FFEC13FC02028D67
:1000FB00EC4D6011E8497017ED33EC3304600DE4FF
:10010B00FCFFFEFD22E933E8330470F80202AB1268
:10011B00027658046009E4CC248150062850090269
:10012B0002B52840030202B2C0E0EB4A7044B9802A
:10013B0006D0E0FB0202A1EF4E701CBD8008EBFF66
:10014B00EAFEE9FD80EBE98DF0A4FEE5F00201E4A7
:10015B00E9CDF9EAFEEBFFEF89F0A4FCE5F0CE89DF
:10016B00F0A42EFFE435F0CD89F0A42DFEE435F09C
:10017B008067EF4E7005BD80D780C3EF8BF0A4ACCA
:10018B00F0EE8BF0A42CFCE435F0F8EF8AF0A42C05
:10019B00E5F038FCE433CB8DF0A42CFCE5F03BF818
:1001AB00EE8AF0A42CFCE5F038F8E433CF89F0A408
:1001BB002CFCE5F038CF3400CE89F0A42FFFE5F00E
:1001CB003EFEE433C98DF0A42EFEE5F039CD8AF066
:1001DB00A42FFFE5F03EFEE43DFD33D0E0FB5007DE
:1001EB000BBB000F0202B5EC2CFCEF33FFEE33FE22
:0601FB00ED33FD02028D50
:1002010075F020800E75F010800575F0087D007E78
:10021100007F003392D530D50312047CEC334010BB
:10022100EF33FFEE33FEED33FDEC33FCD5F0ED2281
:0E023100E5F0247EA2D513CC92E7CDCEFF22BD
:10023F00EDD2E7CD33EC3392D524814006E4FFFEB7
:10024F00FDFC22FCE4CFCECDCC24E0501174FF8016
:10025F00EDC3CC13CCCD13CDCE13CECF13CF0470B3
:07026F00F030D5DE02047C33
:10027600E9D2E7C933E833F892D5EDD2E7CD33ECCE
:0702860033FC5002B2D52247
:10028D00EC30E7100FBF000C0EBE00080DBD0004D2
:10029D000BEB6014A2D5EB13FCED92E7FD2274FF7E
:1002AD00FCFDFEFF22E480F8A2D574FF13FC7D80D7
:0302BD00E480EFEB
:03000000020D0AE4
:0C0D0A00787FE4F6D8FD758167020D517A
:1002C000E709F608DFFA8046E709F208DFFA803E20
:1002D00088828C83E709F0A3DFFA8032E309F6080D
:1002E000DFFA8078E309F208DFFA807088828C8375
:1002F000E309F0A3DFFA806489828A83E0A3F60829
:10030000DFFA805889828A83E0A3F208DFFA804C02
:1003100080D280FA80C680D4806980F280338010D9
:1003200080A680EA809A80A880DA80E280CA803342
:1003300089828A83ECFAE493A3C8C582C8CCC583BA
:10034000CCF0A3C8C582C8CCC583CCDFE9DEE7808A
:100350000D89828A83E493A3F608DFF9ECFAA9F009
:10036000EDFB2289828A83ECFAE0A3C8C582C8CC5F
:10037000C583CCF0A3C8C582C8CCC583CCDFEADE78
:10038000E880DB89828A83E493A3F208DFF980CCDA
:1003900088F0EF60010E4E60C388F0ED2402B404D3
:1003A0000050B9F582EB2402B4040050AF2323457A
:0603B0008223900310738C
:1003B600BB010689828A83E0225002E722BBFE0245
:0903C600E32289828A83E4932278
:1003CF00F8BB010DE58229F582E5833AF583E8F064
:1003DF00225006E92582C8F622BBFE05E92582C810
:0203EF00F222F8
:1003F100BC000BBE0029EF8DF084FFADF022E4CCF0
:10040100F875F008EF2FFFEE33FEEC33FCEE9DECB8
:10041100984005FCEE9DFE0FD5F0E9E4CEFD22EDFE
:10042100F8F5F0EE8420D21CFEADF075F008EF2F48
:10043100FFED33FD4007985006D5F0F222C398FD39
:050441000FD5F0EA22D6
:10044600C2D5EC30E709B2D5E4C39DFDE49CFCEED1
:1004560030E715B2D5E4C39FFFE49EFE1203F1C355
:10046600E49DFDE49CFC80031203F130D507C3E450
:060476009FFFE49EFE2240
:0E047C00C3E49FFFE49EFEE49DFDE49CFC2291
:10048A00E3F5F009E208B5F06D606B80F3E3F5F08F
:10049A0009E608B5F060605E80F387F009E608B502
:1004AA00F054605280F487F009E208B5F0486046DB
:1004BA0080F488828C8387F009E0A3B5F03860362F
:1004CA0080F488828C8387F009E493A3B5F02760CF
:1004DA002580F388828C83E3F5F009E0A3B5F01652
:1004EA00601480F388828C83E3F5F009E493A3B562
:1004FA00F004600280F20205B5808580E7808E8074
:10050A00D2803C8015806C807E809B80B5808B80F9
:10051A00A1804F8070803A0205C189828A83ECFAF1
:10052A00E493F5F0A3C8C582C8CCC583CCE493A3F1
:10053A00C8C582C8CCC583CCB5F070606E80E1892D
:10054A00828A83E493F5F0A3E208B5F05E605C80EA
:10055A00F289828A83E0F5F0A3E608B5F04D604B94
:10056A0080F389828A83E0F5F0A3E208B5F03C6063
:10057A003A80F389828A83E493F5F0A3E608B5F01A
:10058A002A602880F2805389828A83ECFAE493F500
:10059A00F0A3C8C582C8CCC583CCE0A3C8C582C8AD
:1005AA00CCC583CCB5F004600280E27FFFB5F002CF
:1005BA000F2240027F012289828A83ECFAE0F5F059
:1005CA00A3C8C582C8CCC583CCE0A3C8C582C8CCA1
:1005DA00C583CCB5F0D560D380E389828A83ECFAEF
:1005EA00E0F5F0A3C8C582C8CCC583CCE493A3C800
:1005FA00C582C8CCC583CCB5F0B160AF80E288F0C3
:10060A00ED2402B4040050A3F582EB2402B40400E2
:0B061A005099232345822390050373B1
:100D1600020A40E493A3F8E493A34003F68001F2A9
:100D260008DFF48029E493A3F85407240CC8C333DE
:100D3600C4540F4420C8834004F456800146F6DFAD
:100D4600E4800B010204081020408090106EE47EBF
:100D5600019360BCA3FF543F30E509541FFEE493A2
:100D6600A360010ECF54C025E060A840B8E493A369
:100D7600FAE493A3F8E493A3C8C582C8CAC583CA94
:100D8600F0A3C8C582C8CAC583CADFE9DEE780BE4C
:01109300005C
:00000001FF
