:0E0566004D43503332303420544553543A0044
:1004D5001204917F801205807BFF7A0579661205EB
:1004E50014E4FF1203488F0B8E0A8D098C087FC018
:1004F500120580AF0BAE0AAD09AC087510021204E7
:0F050500337F561205857FF47E0112053980D2AF
:10053900D3EF9400EE940040147D7A7C00ED1D7099
:0D054900011CED4C70F7EF1F70E61E80E303
:010556002282
:100491007F107E001205397F301205807F067E00B5
:1004A1001205397F301205807F017E001205397FE8
:1004B100301205807F017E001205397F38120580D8
:1004C1007F101205807F011205807F061205807F53
:0404D1000F02058091
:05058000C2B4020557A2
:05058500D2B40205578D
:0F055700C2B58F80D2B6C2B67F027E00020539D0
:100514008B0C8A0D890EAB0CAA0DA90E1201C860B2
:1005240013050EE50E7002050D14F91201C8FF1231
:05053400058580E222B4
:0403CD008E158F16E4
:1003D100E4F521C3E5156480948050107F2D12054A
:1003E10085C3E49516F516E49515F515AE15AF160A
:1003F1007C007D0A1201E1ED2430FFAE210521745C
:10040100172EF8A607AE15AF167C007D0A1201E182
:100411008E158F16E516451570D2D3E521648094AB
:1004210080400E74162521F8E6FF120585152180FE
:01043100E9E1
:0104320022A7
:080433008F0F8E0E8D0D8C0C55
:10043B001201478F148E138D128C111203CD7F2E48
:10044B00120585D3E510648094804039AF0FAE0E52
:10045B00AD0DAC0CE4FBFA792078411200038F0F41
:10046B008E0E8D0D8C0C1201478F148E138D128CEA
:10047B0011E47B0AFAF9F8120253EB2430FF120550
:05048B0085151080BE84
:010490002249
:02034800A90703
:10034A00E4FBFAF50FF50EF50DF50CD2B2D2B1D2E7
:10035A00B0D2B3C2B3C2B0D2B0C2B0D2B0C2B0D2BD
:10036A00B0E9C3131392B2C2B0D2B0E91392B2C2C7
:10037A00B0D2B0C2B0D2B0C2B0D2B0E4FDC2B030D6
:10038A00B11AC3740B9DFF74017E00A8070880058B
:10039A00C333CE33CED8F94203EE4202D2B00DBDFA
:1003AA000CDBD2B3AE02AF03AD07AC06E412010E0A
:1003BA00E4FBFA79A0783A1200038F0F8E0E8D0DA6
:0203CA008C0C99
:0103CC00220E
:10000300EC4D6011E8497017ED33EC3304600DE4F7
:10001300FCFFFEFD22E933E8330470F80201B3125A
:10002300017E58046009E4CC24815006285009025B
:1000330001BD2840030201BAC0E0EB4A7044B98015
:1000430006D0E0FB0201A9EF4E701CBD8008EBFF58
:10005300EAFEE9FD80EBE98DF0A4FEE5F00200EC99
:10006300E9CDF9EAFEEBFFEF89F0A4FCE5F0CE89D8
:10007300F0A42EFFE435F0CD89F0A42DFEE435F095
:100083008067EF4E7005BD80D780C3EF8BF0A4ACC3
:10009300F0EE8BF0A42CFCE435F0F8EF8AF0A42CFE
:1000A300E5F038FCE433CB8DF0A42CFCE5F03BF811
:1000B300EE8AF0A42CFCE5F038F8E433CF89F0A401
:1000C3002CFCE5F038CF3400CE89F0A42FFFE5F007
:1000D3003EFEE433C98DF0A42EFEE5F039CD8AF05F
:1000E300A42FFFE5F03EFEE43DFD33D0E0FB5007D7
:1000F3000BBB000F0201BDEC2CFCEF33FFEE33FE14
:06010300ED33FD02019541
:1001090075F020800E75F010800575F0087D007E71
:10011900007F003392D530D5031202E5EC3340104D
:10012900EF33FFEE33FEED33FDEC33FCD5F0ED227A
:0E013900E5F0247EA2D513CC92E7CDCEFF22B6
:10014700EDD2E7CD33EC3392D524814006E4FFFEB0
:10015700FDFC22FCE4CFCECDCC24E0501174FF800F
:10016700EDC3CC13CCCD13CDCE13CECF13CF0470AC
:07017700F030D5DE0202E5C5
:10017E00E9D2E7C933E833F892D5EDD2E7CD33ECC7
:07018E0033FC5002B2D52240
:10019500EC30E7100FBF000C0EBE00080DBD0004CB
:1001A5000BEB6014A2D5EB13FCED92E7FD2274FF77
:1001B500FCFDFEFF22E480F8A2D574FF13FC7D80D0
:0301C500E480EFE4
:0300000002057482
:0C057400787FE4F6D8FD7581210204D5E3
:1001C800BB010689828A83E0225002E722BBFE0235
:0901D800E32289828A83E4932268
:1001E100C2D5EC30E709B2D5E4C39DFDE49CFCEE39
:1001F10030E715B2D5E4C39FFFE49EFE1202F3C3BC
:10020100E49DFDE49CFC80031202F330D507C3E4B6
:060211009FFFE49EFE22A7
:1002170075F008758200EF2FFFEE33FECD33CDCC9E
:1002270033CCC58233C5829BED9AEC99E582984021
:100237000CF582EE9BFEED9AFDEC99FC0FD5F0D6FE
:10024700E4CEFBE4CDFAE4CCF9A88222B800C1B928
:100257000059BA002DEC8BF084CFCECDFCE5F0CB66
:10026700F97818EF2FFFEE33FEED33FDEC33FCEB9F
:1002770033FB10D703994004EB99FB0FD8E5E4F95A
:10028700FA227818EF2FFFEE33FEED33FDEC33FC47
:10029700C933C910D7059BE99A4007EC9BFCE99A3B
:1002A700F90FD8E0E4C9FAE4CCFB2275F010EF2F80
:1002B700FFEE33FEED33FDCC33CCC833C810D70780
:1002C7009BEC9AE899400AED9BFDEC9AFCE899F8BB
:0E02D7000FD5F0DAE4CDFBE4CCFAE4C8F9224E
:0E02E500C3E49FFFE49EFEE49DFDE49CFC222A
:1002F300BC000BBE0029EF8DF084FFADF022E4CCEF
:10030300F875F008EF2FFFEE33FEEC33FCEE9DECB7
:10031300984005FCEE9DFE0FD5F0E9E4CEFD22EDFD
:10032300F8F5F0EE8420D21CFEADF075F008EF2F47
:10033300FFED33FD4007985006D5F0F222C398FD38
:050343000FD5F0EA22D5
:00000001FF
