:020000040000FA
:1000000068020010690100006D0100006F0100002E
:100010007101000073010000750100000000000084
:100020000000000000000000000000007701000058
:1000300079010000000000007B0100007D0100004C
:100040007F0100007F0100007F0100007F010000B0
:100050007F0100007F0100007F0100007F010000A0
:100060007F0100007F0100007F0100007F01000090
:100070007F0100007F0100007F0100007F01000080
:100080007F0100007F0100007F0100007F01000070
:100090007F0100007F0100007F0100007F01000060
:1000A0007F0100007F0100007F0100007F01000050
:1000B0007F0100007F0100007F0100007F01000040
:1000C0007F0100007F0100007F01000000F002F8C6
:1000D00000F03CF80AA090E8000C82448344AAF1A6
:1000E0000107DA4501D100F031F8AFF2090EBAE8A4
:1000F0000F0013F0010F18BFFB1A43F0010318475C
:100100002013000040130000103A24BF78C878C1C3
:10011000FAD8520724BF30C830C144BF04680C600D
:10012000704700000023002400250026103A28BF55
:1001300078C1FBD8520728BF30C148BF0B60704759
:100140001FB5AFF300801FBD10B510BD00F090F8D3
:100150001146FFF7F5FF00F021F800F0AEF8FFF7C9
:10016000F3FF00F0B5F8000008480047FEE7FEE79F
:10017000FEE7FEE7FEE7FEE7FEE7FEE7FEE7FEE757
:1001800003480449024A044B70470000CD000000B8
:1001900068000010680200106800001070B50024AC
:1001A000412500F0BAF94FF41651002000F08AFA08
:1001B0001C221B214FF4006000F0BAFC00BF15E0C8
:1001C0002A460CA1002000F084FB2946204600F0BE
:1001D000BAFC204600F0E9FC064632460BA100209E
:1001E00000F077FB601CC4B2681CC5B25A2DE7DD75
:1001F00000BFFEE7456570726F6D205772697465C8
:100200003A20256320202020000000004565707200
:100210006F6D20526561643A2025630A0D0000006D
:100220000022002100BF05E0002100E0491C172941
:10023000FCD3521C8242F7D3704730B505460024E8
:1002400004E04FF47A70FFF7EBFF641CAC42F8D384
:1002500030BD30B50546002404E04FF47A70FFF756
:10026000ECFF641CAC42F8D330BD70477047704758
:10027000754600F029F8AE4605006946534620F061
:100280000700854618B020B5FFF77AFFBDE820408B
:100290004FF000064FF000074FF000084FF0000B42
:1002A00021F00701AC46ACE8C009ACE8C009ACE8F5
:1002B000C009ACE8C0098D4670470446AFF3008022
:1002C0002046FFF74CFF0000004870470800001070
:1002D00003494FF01800ABBE704700000900000052
:1002E000260002007047000002494FF0000001F0B4
:1002F0003CB800000000F87F00000000FFFFFFFF97
:1003000030B5A0281BDA032919D8431100F01F00CB
:100310005B00102804DB5C1CE3B2A0F11004E0B227
:100320004406200E2E4C04EB8302032585401468FE
:10033000AC43146001FA00F514682C43146030BD1E
:1003400030B5A02811DA421100F01F00254C04EB53
:10035000421329B11C68012585402C431C6004E030
:100360001D6801248440A5431D6030BD30B5A02820
:1003700011DA421100F01F001A4C04EB421329B1AC
:100380009C69012585402C439C6104E0DD690124C2
:1003900084402543DD6130BD10B5A0280ADA411143
:1003A00000F01F000F4B03EB4112546901238340FF
:1003B0005C40546110BD30B501460020A0290EDA22
:1003C0004A1101F01F01074C04EB42135D6901243F
:1003D0008C40254201D0012400E00024E0B230BD71
:1003E00000C0024000C0092092480068C0F30160CC
:1003F000032860D18F488430006810F0030006D0D5
:10040000012820D0022839D0032853D100E000BFB2
:1004100088480068C0F30E00401C410086484143F4
:1004200084488838D0F88800C0F30740401CB1FBEE
:10043000F0F180487C300068C0B2401CB1FBF0F0A5
:100440007E49086036E07B480068C0F30E00401C1F
:1004500041007B48414377488838D0F88800C0F392
:100460000740401CB1FBF0F172487C300068C0B21C
:10047000401CB1FBF0F0714908601BE06D4800685A
:10048000C0F30E00401C41004FF4FA40414369485C
:100490008838D0F88800C0F30740401CB1FBF0F169
:1004A00064487C300068C0B2401CB1FBF0F0634986
:1004B000086000BF30E05F488430006810F003003F
:1004C00006D0012810D0022819D0032823D100E03B
:1004D00000BF58487C300068C0B2401C5649B1FB90
:1004E000F0F05649086016E052487C300068C0B20F
:1004F000401C5349B1FBF0F0504908600BE04D48F7
:100500007C300068C0B2401C4FF4FA41B1FBF0F0FF
:100510004A49086000BF00BF704720204949086071
:1005200000BF4848006810F0400FFAD0032041494E
:100530007C31086001203F498839C1F80C014248EC
:100540003C49091F0860AA203A49091D0860552046
:1005500008600120374908390860AA203549091D7B
:100560000860552033498839C1F88C0000BF3148F4
:10057000006810F0806FFAD003202E490839086017
:10058000AA202C498839C1F88C0055202949091D19
:10059000086000BF2748006810F0407FFAD0232091
:1005A00024491C310860AA2022498839C1F8AC00CE
:1005B000552020492431086001201E491831086067
:1005C000AA201C492431086055201A498839C1F8ED
:1005D000AC0000BF17482030006810F4806FF9D0DD
:1005E0000320144918310860AA2012498839C1F83B
:1005F000AC0055200F492431086000BF0D48203061
:10060000006810F4407FF9D000200E4908310860DE
:1006100008498839C1F8AC010C4806493C310860EA
:10062000002008492831086043F23A00014988391E
:100630000860704788C00F4000093D0000000010AE
:10064000001BB700A0C10F4063000500DE8728042F
:1006500070B5042835D2F54D2D68C5F3811232B13D
:10066000012A08D0022A09D0032A0FD10AE0F04D4E
:100670002D68AC080AE0EE4D2C6807E0EC4D2D68C3
:100680006C0803E0EA4D2D68EC0800BF00BF0D01C7
:10069000B4FBF5F3E74E06EBC006766833701D0A2F
:1006A000E44E06EBC00676683571E24D05EBC005F9
:1006B0006D682D7B25F08005DE4E06EBC006766862
:1006C000357370BD70B504460D46042C2FD2D94A3F
:1006D00002EBC4029178D74A12F83400FFF710FEFB
:1006E000D44A02EBC4029178D24A02EBC402507899
:1006F000FFF706FECD48E4380068CE4901EBC4019F
:10070000CA78012191400843CB49C1F8C4000720B1
:10071000C84901EBC401496808728320C54901EB4F
:10072000C4014968087329462046FFF791FF70BD50
:100730000146002004290DD200BFBE4A02EBC102CF
:100740005268127D12F0010FF7D0BA4A02EBC102D3
:1007500052681078704704280DD200BFB54A02EBEA
:10076000C0025268127D12F0200FF7D0B14A02EB9E
:10077000C00252681170704710B504460B4604E081
:1007800013F8011B2046FFF7E6FF18780028F7D181
:1007900010BD70B503460C46002618E01846FFF75A
:1007A000C7FF054629461846FFF7D5FF0D2D01D096
:1007B0000A2D03D15EB10020A05509E0082D03D118
:1007C00016B1701EC6B202E0A555701CC6B2E5E7B0
:1007D00000BF304670BDFEB504460D4616460027E4
:1007E000022D14D110E0591E01208840304201D062
:1007F000012000E00020C7B207F13000C1B220465E
:10080000FFF7A9FF581EC3B2002BECD136E026B982
:1008100030212046FFF79FFF30E0002714E04EB163
:10082000B6FBF5F005FB1060C0B20DF80700B6FB93
:10083000F5F607E0FF2B01D00A2B00D906E00020D7
:100840000DF80700781CC7B29F42E8DB00BF13E039
:10085000781E1DF80000092804DD781E1DF8000030
:10086000373003E0781E1DF800003030C1B220465A
:10087000FFF771FF781EC7B2002FE9D1FEBD2DE949
:10088000F04104460D46284600F09CFB0646FF2337
:1008900032460A212046FFF79EFF2E212046FFF711
:1008A0005AFF304600F0D3FB0746294600F07DFC96
:1008B00005466249284600F0CFFB074600F082FB60
:1008C0000646FF2332460A212046FFF784FFBDE893
:1008D000F0810FB42DE9F04F87B0044612A80390C1
:1008E000119D1CE195F800A0BAF1250F71D16D1C86
:1008F00095F800A0BAF1300F17DBBAF1390F14DC0C
:100900004FF0000B0AE0AAF130000BEB8B0100EB7B
:10091000410000F0FF0B6D1C95F800A0BAF1300FFC
:1009200005DBBAF1390FEEDD01E04FF0FF0BBAF154
:10093000580F79D017DCBAF1440F4BD009DCBAF16B
:10094000250F72D0BAF1420F7AD0BAF1430F2CD1F1
:1009500021E0BAF1460F74D0BAF1530F72D0BAF158
:10096000550FF4D153E0BAF1660F6CD009DCBAF13F
:10097000620F69D0BAF1630F0ED0BAF1640FE6D1FD
:1009800014E0BAF1730F79D0BAF1750F33D0BAF120
:10099000780FDCD159E000BF039802C801F0FF0ACC
:1009A000039051462046FFF7D6FEB2E0039802C8F6
:1009B0000EB20390002E05DA704206B22D212046B9
:1009C000FFF7C9FE5B4632460A212046FFF703FFC8
:1009D0009FE09FE0039880C80390002F04DA7F42D5
:1009E0002D212046FFF7B7FE5B463A460A212046F6
:1009F000FFF7F1FE8DE0039802C81FFA81F803901B
:100A00005B4642460A212046FFF7E5FE81E0039857
:100A1000006802900398001D03905B460A2120465F
:100A2000029AFFF7D8FE74E01BE06DE0A8C10F400A
:100A3000000000100014000000C00F4000247449A2
:100A40002EE03FE056E03EE019E0039802C81FFAAE
:100A500081F803905B46424610212046FFF7BBFE1B
:100A600057E00398006802900398001D03905B46CE
:100A700010212046029AFFF7AEFE4AE03BE00398C1
:100A800002C81FFA81F80390BBF1FF0F01D14FF0AC
:100A9000100B5B46424602212046FFF79CFE38E0E1
:100AA0000398006802900398001D0390BBF1FF0FAC
:100AB00001D14FF0100B5B4602212046029AFFF74E
:100AC0008AFE26E000BF0398C01D20F00700014603
:100AD000039000684968CDE9040103980830039049
:100AE000DDE9040100F098F9014601902046FFF786
:100AF000C6FE0EE000BF039850F8049B03904946E1
:100B00002046FFF739FE04E025212046FFF723FEAB
:100B100000BF03E051462046FFF71DFE6D1C2878FC
:100B200000287FF4DFAE07B0BDE8F00F5DF814FBDE
:100B300070B504460D4616463146284600F09EF82C
:100B40004D48048070BD2DE9F04704460D464FF036
:100B5000A00849480088844225DAE6B24648008861
:100B6000B0F5006F02D94FEA142904E0270A48EAD9
:100B7000470000F0FF0800F093F8404600F0E5F869
:100B80003D480088B0F5006F02D9484600F0DDF816
:100B9000304600F0DAF8284600F0D7F800F0A4F864
:100BA0000A20FFF74AFBBDE8F0872DE9F04704462D
:100BB00000274FF0A0083048008884422CDAE5B2C4
:100BC0002D480088B0F5006F02D94FEA142904E0DF
:100BD000260A48EA460000F0FF0800F061F84046A7
:100BE00000F0B3F824480088B0F5006F02D94846F9
:100BF00000F0ABF8284600F0A8F800F051F848F0F3
:100C0000010000F0A2F8002000F0CFF8074600F045
:100C10006BF80A20FFF704FB3846BDE8F08770B593
:100C200005460C4600BF21782846FFF78CFF641C60
:100C3000681C85B214F8010C0028F4D170BD70B5A1
:100C400004460E4600BF2046FFF7AFFF054635704D
:100C5000761C601C84B2002DF5D170BD10B5002447
:100C600005E0FF212046FFF76EFF601C84B20248BA
:100C700000888442F5DB10BD0400001070B5044606
:100C80000D46634804706348057001216048007890
:100C9000FFF756FB01215F480078FFF751FB70BD5D
:100CA00010B500215B480078FFF760FB0121584830
:100CB0000078FFF75BFB0120FFF7B2FA01215548EE
:100CC0000078FFF753FB0120FFF7AAFA00215048F4
:100CD0000078FFF74BFB0120FFF7A2FA00214D48F7
:100CE0000078FFF743FB10BD10B50021494800789C
:100CF000FFF73CFB0120FFF793FA002144480078FE
:100D0000FFF734FB0120FFF78BFA012141480078FF
:100D1000FFF72CFB0120FFF783FA01213C48007804
:100D2000FFF724FB10BD10B50120FFF779FA012170
:100D300038480078FFF71AFB0120FFF771FA00210D
:100D400034480078FFF712FB10BD70B5044600254B
:100D50000AE0E1092E480078FFF708FBFFF7E3FF00
:100D60006006040E681CC5B2082DF2DBFFF7DBFF3E
:100D700070BD10B5012126480078FFF7F7FAFFF79C
:100D8000D2FF012123480078FFF7F0FA10BD10B51B
:100D900000211F480078FFF7E9FAFFF7C4FF01219F
:100DA0001B480078FFF7E2FA10BD70B50446002634
:100DB000002117480078FFF7C3FA002518E001204A
:100DC000FFF72EFA012113480078FFF7CFFA012030
:100DD000FFF726FA7006060E0D480078FFF7EBFACB
:100DE000064300210B480078FFF7C0FA681CC5B223
:100DF000082DE4DB012106480078FFF7A1FA012C59
:100E000002D1FFF7C4FF01E0FFF7B3FF304670BD2A
:100E1000060000100700001001F0004321F000411F
:100E200081EA410212F0FE4F08BF12F4600F00F099
:100E30002880A1F16051B1F5801F1BDB02014FF04A
:100E4000404C09D803D208BF4FF0000C0AE000F074
:100E500000521CEB820C05D410F100504FF0804C76
:100E600041F10001B1F17F6F06DA43EAC10343EAC1
:100E700050707047184670474FF0FF0243EAC25067
:100E8000704711F4801F01D118467047DFF818C071
:100E900041EA030150EA01327FF426AAAFF3008051
:100EA00021F4E000704700008800000490EA010F80
:100EB00048BF81F0004100F18A81421A3CBF801A8C
:100EC00089184FEAD0524FF07F4C1CEA410FA2EB39
:100ED000D15318BF9CEA026F00F040804FF0004CE5
:100EE0004CEA00204CEA012121FA03FC10EB0C0C27
:100EF00023D202F1FF325FEA1C2040EBC25038BF20
:100F000070471CF07F0F4FEA400C18BFBCF17F4FB9
:100F100038BF7047C3F12003994008BF20F001009B
:100F2000BCF17F4F38BF7047A0F1C0404FF0FF01C8
:100F300041EAD0514FEAC15070474FEA3C00000AE5
:100F400040EBC25028BF1CF0FF0F4FEA400CE1D02D
:100F500018BFBCF17F4F38BF7047E5E79CEA026FCE
:100F600005D010EA5C0F08BF00F000407047BCEBF2
:100F7000410F4FEA400228BF9445DFF828C0C0F077
:100F80001580AFF30080B2EB410F05D012F1807FE6
:100F900008BF70470846704790EA010F58BF704776
:100FA00001487047010000040000C07F014800F0C4
:100FB000DCB900000000C07F014800F0D6B9000095
:100FC0000000C07FC2154FEA002318BF43F0004362
:100FD00005D4D2F19E020AD323FA02F070474FEAF9
:100FE0004001B1F1FE4F02D24FF000007047DFF830
:100FF00028C04FEA4001B1F17F4F88BF4CF4803CDC
:101000003FF6DAAF1CBF6FEAE0707047AFF30080C5
:101010006FEAE070704700006800020410F00042C0
:1010200018BF404242F08042B0FA80F18840A2EB03
:10103000C15202F1786208BF7047410642EB20209E
:1010400018BF5FF0806C28BF20F0010070474FF0A0
:101050008042FFF7E9BF00004FF47F0C1CEAD0127A
:101060001EBF1CEAD11392EA0C0F93EA0C0F00F09A
:101070004A8090EA010F48BF42F480724FF0004C62
:101080004CEA00204CEA01211A44A0FB01C3A2F55E
:101090000002BCF1000F18BF43F0010302F4807C92
:1010A000B3F1004F38BF5B0042EB2242180A40EB1D
:1010B000C25028BF13F07F0F18BFB2F57C0F38BFA6
:1010C000704708BF20F00100B2F57C0F38BF7047B1
:1010D0000BD582F0FF0212F5803FC8BF704700F1C8
:1010E000C040D8BF00F00040704700F5000C5FEA38
:1010F0004C0C48BF7047B0F1C0404FF07F404CBF30
:1011000040104008704790EA010F0CEAD11348BF25
:1011100042F48072624538BF634504D280EA010020
:1011200000F0004070474FF0807C1CEB400F98BFF0
:101130001CEB410F4FF0030C4CF0806C3FF636AFC8
:10114000AFF3008012F47F0F1FBF13F47F0F42F044
:10115000FF02D00570470148704700000000C07FC3
:1011600010B412F47F0F4FEA00204FEA012110D192
:10117000B0FA80F400FA04F0A2EB044213F47F0FFB
:1011800002F5803218BF41F0004100D010BC18BFFA
:10119000604740F00040B1FA81F401FA04F1A3EB9A
:1011A000044310BC03F58033604780F0004090EAB0
:1011B000010F7FF582AE81F0004100F008B8000019
:1011C00090EA010F48BF81F000413FF576AE421A28
:1011D0003EBF82F00042801A89184FEAD0524FF089
:1011E0007F4C1CEA410FA2EBD15318BF9CEA026F5F
:1011F0004FD04FF0004C4CEA00204CEA012121FA7C
:1012000003FCB0EB0C0C0FD412F0FE0F18BF5FEA1A
:101210004C001DD5001240EBC25038BF70471CF087
:101220003F0F18BF70470BE0A2F101025FEA1C20DC
:1012300040EBC25038BF70471CF07F0F18BF70479B
:10124000C3F12003994014BF401E20F001007047F5
:101250004FEA122316D0004204BF002070474FEA25
:101260009000B0FA80FCA2EB0C02CCF1280C60FAE2
:101270000CF093EA122F04BF00EBC25070474FEA04
:10128000C37070475FEADC1008BF70474FEAC37055
:1012900070479CEA026F04D010EA5C0F08BF002080
:1012A0007047BCEB410F4FEA400228BF9445DFF87E
:1012B0002CC0FFF47BAEAFF30080B2EB410F06D041
:1012C00012F1807F08BF704781F00040704790EABC
:1012D000010F48BF70470248704700000200000439
:1012E0000000C07F00F0004343EAD05323F4807332
:1012F000C3F1C10323F0004117291FD8C3F1200314
:1013000010FA03F1C3F1200320F07F4040F4000005
:1013100020FA03F003F0004340EA03000DD00B462F
:10132000590009D318BF401C06D17FEAE27398BF69
:10133000401C38BF20F0010070477047182903EBAC
:10134000912318BF6FF00041013168BF03F00040E6
:1013500009D6400203F0004000F1010004BF12F082
:10136000004F20F00100704770470CF00F03092B6D
:1013700008BF082000F02B800A2B0BD0082B18BFC9
:10138000704708BF1CF0400F0AD04FF000004FF02C
:10139000000170471CF0400F18BF4FF0004070472D
:1013A0001CF0100F08D020F0704300F07F4242EA9A
:1013B000D3014FEA4370704700F0604021F07F4254
:1013C00042EA000201F07F4040EA727070471CF46C
:1013D000801F11D01CF4E02F03D06FEACC314900FC
:1013E00070474FF04050EFF3008222F0704242EA23
:1013F000000282F3008870474FF000007047000041
:101400000203010300C0004040410204000001400B
:101410000A0B0118008009400001021900C00940B0
:101420004014000000000010080000000801000047
:1014300048140000080000106002000024010000B1
:0814400000E1F50500000000C9
:04000005000000CD2A
:00000001FF
