:020000040800F2
:1000000000000220F1250008C1250008C3250008D2
:10001000C5250008C7250008C92500080000000004
:1000200000000000000000000000000011160008A1
:10003000CB25000800000000B116000815170008C5
:1000400041260008412600084126000841260008F4
:1000500041260008412600084126000841260008E4
:1000600041260008412600084126000841260008D4
:1000700041260008412600084126000841260008C4
:1000800041260008412600084126000841260008B4
:1000900041260008412600084126000841260008A4
:1000A00041260008CD250008412600084126000809
:1000B0004126000841260008412600084126000884
:1000C0004126000841260008412600084126000874
:1000D0004126000841260008412600084126000864
:1000E0004126000841260008412600084126000854
:1000F0004126000841260008412600084126000844
:100100004126000841260008412600084126000833
:100110004126000841260008412600084126000823
:100120004126000841260008412600084126000813
:1001300041260008000000000000000041260008E1
:1001400041260008412600084126000841260008F3
:1001500041260008412600084126000841260008E3
:1001600041260008412600084126000841260008D3
:100170004126000841260008412600080000000032
:100180000000000041260008000000000000000000
:100190004126000800000000000000004126000881
:1001A00000000000000000000000000041260008E0
:1001B0004126000841260008412600084126000883
:0801C0004126000800000000C8
:1001D00010B5054C237833B9044B13B10448AFF381
:1001E00000800123237010BD1000002000000000DB
:1001F0009C26000808B5034B1BB103490348AFF325
:10020000008008BD00000000140000209C260008AB
:1002100053B94AB9002908BF00281CBF4FF0FF316D
:100220004FF0FF3000F074B9ADF1080C6DE904CE69
:1002300000F006F8DDF804E0DDE9022304B07047C1
:100240002DE9F047089D04468E46002B4DD18A4289
:10025000944669D9B2FA82F252B101FA02F3C2F1BC
:10026000200120FA01F10CFA02FC41EA030E94404D
:100270004FEA1C48210CBEFBF8F61FFA8CF708FB6E
:1002800016E341EA034306FB07F199420AD91CEB46
:10029000030306F1FF3080F01F81994240F21C8178
:1002A000023E63445B1AA4B2B3FBF8F008FB1033C0
:1002B00044EA034400FB07F7A7420AD91CEB0404F5
:1002C00000F1FF3380F00A81A74240F207816444C5
:1002D000023840EA0640E41B00261DB1D44000234A
:1002E000C5E900433146BDE8F0878B4209D9002DAE
:1002F00000F0EF800026C5E9000130463146BDE838
:10030000F087B3FA83F6002E4AD18B4202D38242A1
:1003100000F2F980841A61EB030301209E46002D50
:10032000E0D0C5E9004EDDE702B9FFDEB2FA82F2A5
:10033000002A40F09280A1EB0C014FEA1C471FFA03
:100340008CFE0126200CB1FBF7F307FB131140EAEA
:1003500001410EFB03F0884208D91CEB010103F1B7
:10036000FF3802D2884200F2CB804346091AA4B279
:10037000B1FBF7F007FB101144EA01440EFB00FE4D
:10038000A64508D91CEB040400F1FF3102D2A645B2
:1003900000F2BB800846A4EB0E0440EA03409CE751
:1003A000C6F12007B34022FA07FC4CEA030C20FAFE
:1003B00007F401FA06F31C43F9404FEA1C4900FA1E
:1003C00006F3B1FBF9F8200C1FFA8CFE09FB18119B
:1003D00040EA014108FB0EF0884202FA06F20BD90E
:1003E0001CEB010108F1FF3A80F08880884240F25E
:1003F0008580A8F102086144091AA4B2B1FBF9F0A2
:1004000009FB101144EA014100FB0EFE8E4508D99C
:100410001CEB010100F1FF346CD28E456AD9023821
:10042000614440EA0840A0FB0294A1EB0E01A14206
:10043000C846A64656D353D05DB1B3EB080261EB74
:100440000E0101FA07F722FA06F3F1401F43C5E94E
:10045000007100263146BDE8F087C2F12003D84084
:100460000CFA02FC21FA03F3914001434FEA1C47C6
:100470001FFA8CFEB3FBF7F007FB10360B0C43EAB8
:10048000064300FB0EF69E4204FA02F408D91CEB68
:10049000030300F1FF382FD29E422DD90238634466
:1004A0009B1B89B2B3FBF7F607FB163341EA034106
:1004B00006FB0EF38B4208D91CEB010106F1FF3855
:1004C00016D28B4214D9023E6144C91A46EA00464C
:1004D00038E72E46284605E70646E3E61846F8E6DE
:1004E0004B45A9D2B9EB020864EB0C0E0138A3E727
:1004F0004646EAE7204694E74046D1E7D0467BE708
:10050000023B614432E7304609E76444023842E77F
:10051000704700BF08B50B4B1A6842F400721A60AE
:100520001A6842F480621A601A6842F480721A6093
:10053000032000F01BF80F2001F0F6FF01F09AFFF6
:10054000002008BD003C0240034A1168034B1B78A1
:100550000B441360704700BF2C00002000000020F7
:10056000014B1868704700BF2C000020074AD36871
:1005700023F4E0631B041B0C000200F4E06003435F
:1005800043F0BF6343F40033D360704700ED00E0F5
:1005900000B5194BDB68C3F30223C3F1070CBCF1B0
:1005A000040F28BF4FF0040C03F1040EBEF1060F38
:1005B00018D9033B4FF0FF3E0EFA0CFC21EA0C0168
:1005C00099400EFA03F322EA0303194300280BDBD8
:1005D0000901C9B200F1604000F5614080F80013E4
:1005E0005DF804FB0023E5E700F00F000901C9B244
:1005F000024B1954F4E700BF00ED00E014ED00E0F9
:10060000002807DB00F01F02400901239340024A43
:1006100042F82030704700BF00E100E000230F2BBC
:1006200000F2DE8070B582B060E085685E00032471
:10063000B44025EA0405CC68B4402C438460456886
:1006400025EA02054C68C4F300129A402A4342602E
:100650005AE0DC08083450F8246003F007029500E3
:100660000F22AA4026EA020E0A69AA4042EA0E02B6
:1006700040F824205CE0062200E0002202FA0EF29C
:100680002A430234574D45F82420574A94686FEAAC
:100690000C0224EA0C054E6816F4801F01D04CEAC7
:1006A0000405514CA560E46802EA04054E6816F49E
:1006B000001F01D04CEA04054B4CE560646802EA77
:1006C00004054E6816F4003F01D04CEA0405464C80
:1006D0006560246822404D6815F4803F01D04CEAE3
:1006E0000402414C226001330F2B77D801229A403B
:1006F0000C6804EA020C32EA0404F4D14C6804F0F9
:100700000304013C012C90D94A6802F00302032A39
:1007100009D0C4685D000322AA4024EA02048A6862
:10072000AA402243C2604A6802F00302022A90D023
:1007300004684FEA430E032202FA0EF224EA02048E
:100740004A6802F0030202FA0EF2224302604A688B
:1007500012F4403FC7D000220192244A546C44F462
:1007600080445464526C02F480420192019A9C08C5
:10077000A51C1C4A52F8255003F003024FEA820ED2
:100780000F2202FA0EF225EA0205194A90423FF4BE
:1007900074AF02F58062904216D002F580629042FA
:1007A00014D002F58062904212D002F5806290422D
:1007B00010D002F5806290420ED002F58062904225
:1007C0003FF459AF072259E7012257E7022255E7C4
:1007D000032253E7042251E705224FE702B070BD20
:1007E000704700BF00380140003C01400038024023
:1007F000000002400AB181617047090481617047BD
:10080000002800F09B8070B50D4604464F4B1B68D6
:1008100003F00F038B4208D2CBB24C4A137013681B
:1008200003F00F038B4240F08B80236813F0020F1C
:1008300017D013F0040F04D0454A936843F4E053F3
:100840009360236813F0080F04D0414A936843F47F
:10085000604393603E4A936823F0F003A1680B4322
:100860009360236813F0010F32D06368012B21D00D
:100870009A1E012A25D9364A126812F0020F61D059
:1008800033498A6822F0030213438B60FFF768FE46
:1008900006462F4B9B6803F00C036268B3EB820F94
:1008A00016D0FFF75DFE801B41F288339842F0D9E5
:1008B000032042E0264A126812F4003FE0D10120F2
:1008C0003BE0234A126812F0007FD9D1012034E0C6
:1008D0001E4B1B6803F00F03AB4207D9EAB21B4B58
:1008E0001A701B6803F00F03AB422DD1236813F07D
:1008F000040F06D0164A936823F4E053E1680B43D3
:100900009360236813F0080F07D0114A936823F40B
:100910006043216943EAC103936000F065F80C4B22
:100920009B68C3F303130B4AD35CD8400A4B18608F
:100930000A4B186801F0F8FD002070BD01207047D7
:100940000120FAE70120F8E70120F6E7003C024029
:1009500000380240E82600080C00002004000020B7
:10096000014B1868704700BF0C00002008B5FFF766
:10097000F7FF044B9B68C3F38223034AD35CD84040
:1009800008BD00BF00380240F826000808B5FFF790
:10099000E7FF044B9B68C3F34233034AD35CD84060
:1009A00008BD00BF00380240F82600080F2303608E
:1009B0000B4B9A6802F0030242609A6802F0F00260
:1009C00082609A6802F4E052C2609B68DB0803F41C
:1009D000E0530361034B1B6803F00F030B60704788
:1009E00000380240003C024008B55C4B9B6803F0B5
:1009F0000C03082B07D00C2B5BD0042B01D05848DC
:100A000008BD5848FCE7554B5A6802F03F025B6846
:100A100013F4800F2AD0514B5968C1F3881C4FEA58
:100A20004C11B1EB0C006EEB0E0E4FEA8E1343EA45
:100A300090638101091A63EB0E03DB0043EA5173F3
:100A4000C90011EB0C0C43F10003590200234FEADB
:100A50004C2041EADC51FFF7DBFB404B5B68C3F302
:100A6000014301335B00B0FBF3F0C9E73B4B59682E
:100A7000C1F3881C4FEA4C11B1EB0C006EEB0E0E6B
:100A80004FEA8E1343EA90638101091A63EB0E0368
:100A9000DB0043EA5173C90011EB0C0C43F1000376
:100AA000990200234FEA8C2041EA9C51FFF7B0FBEA
:100AB000D3E72A4B5A6802F03F025B6813F4800FB9
:100AC00028D0264B5968C1F3881C4FEA4C11B1EB72
:100AD0000C006EEB0E0E4FEA8E1343EA9063810119
:100AE000091A63EB0E03DB0043EA5173C90011EBF3
:100AF0000C0C43F10003590200234FEA4C2041EA59
:100B0000DC51FFF785FB154B5B68C3F30273B0FB49
:100B1000F3F075E7114B5968C1F3881C4FEA4C118B
:100B2000B1EB0C006EEB0E0E4FEA8E1343EA9063AE
:100B30008101091A63EB0E03DB0043EA5173C9001C
:100B400011EB0C0C43F10003990200234FEA8C20B7
:100B500041EA9C51FFF75CFBD5E700BF003802403B
:100B60000024F40000127A00002800F0018270B521
:100B700082B00446036813F0010F41D0994B9B6883
:100B800003F00C03042B32D0964B9B6803F00C034C
:100B9000082B27D0934B9B6803F00C030C2B59D0E8
:100BA0006368B3F5803F5BD0B3F5A02F5ED08D4B6B
:100BB0001A6822F480321A601A6822F480221A60BD
:100BC0006368002B5CD0FFF7CBFC0546854B1B68A8
:100BD00013F4003F14D1FFF7C3FC401B6428F5D980
:100BE0000320CCE17F4B5B6813F4800FD2D07D4BA8
:100BF0001B6813F4003F03D06368002B00F0BA8138
:100C0000236813F0020F60D0764B9B6813F00C0F33
:100C10004AD0744B9B6803F00C03082B3FD0714BF8
:100C20009B6803F00C030C2B69D0E368002B75D094
:100C30006D4B01221A60FFF793FC0546694B1B6858
:100C400013F0020F61D1FFF78BFC401B0228F5D98E
:100C5000032094E1634B5B6813F4800FA0D0C6E7D8
:100C6000604A136843F480331360A9E75D4B1A6848
:100C700042F480221A601A6842F480321A609FE7B8
:100C8000FFF76EFC0546574B1B6813F4003FB7D0C7
:100C9000FFF766FC401B6428F5D903206FE1514B38
:100CA0005B6813F4800FBAD14E4B1B6813F0020F30
:100CB00003D0E368012B40F05F814A4A136823F0B8
:100CC000F803216943EAC1031360236813F0080F96
:100CD00049D06369002B33D0434B0122C3F8802EE7
:100CE000FFF73EFC05463F4B5B6F13F0020F3AD116
:100CF000FFF736FC401B0228F5D903203FE1394BB2
:100D00005B6813F4800F90D1CEE7364A136823F066
:100D1000F803216943EAC1031360D6E7324B00228E
:100D20001A60FFF71DFC05462E4B1B6813F0020FDF
:100D3000CBD0FFF715FC401B0228F5D903201EE19C
:100D4000294B0022C3F8802EFFF70AFC0546254BED
:100D50005B6F13F0020F06D0FFF702FC401B022866
:100D6000F5D903200BE1236813F0040F76D01D4B57
:100D70001B6C13F0805F33D100230193194B1A6C65
:100D800042F080521A641B6C03F080530193019B64
:100D90000125164B1B6813F4807F29D0A368012B13
:100DA0003AD0052B3ED00F4B1A6F22F001021A6782
:100DB0001A6F22F004021A67A368002B3CD0FFF7D9
:100DC000CFFB0646074B1B6F13F0020F45D1FFF711
:100DD000C7FB801B41F288339842F3D90320CEE051
:100DE0000025D6E70038024000004742007000406E
:100DF0006B4A136843F480731360FFF7B1FB064638
:100E0000674B1B6813F4807FC8D1FFF7A9FB801BD9
:100E10000228F5D90320B2E0624A136F43F00103C0
:100E20001367C9E75F4B1A6F42F004021A671A6F23
:100E300042F001021A67BFE7FFF792FB0646594BE3
:100E40001B6F13F0020F08D0FFF78AFB801B41F2E3
:100E500088339842F3D9032091E0EDB9A369002BC0
:100E600000F08C804F4A926802F00C02082A54D09D
:100E7000022B17D04C4B00221A66FFF771FB044679
:100E8000484B1B6813F0007F45D0FFF769FB001B40
:100E90000228F5D9032072E0424A136C23F08053F4
:100EA0001364DBE7404B00221A66FFF759FB054647
:100EB0003C4B1B6813F0007F06D0FFF751FB401B33
:100EC0000228F5D903205AE0E369226A1343626AD3
:100ED00043EA8213A26A5208013A43EA0243E26AF1
:100EE00043EA0263226B43EA02732E4A53602E4B9D
:100EF00001221A66FFF734FB04462A4B1B6813F0E5
:100F0000007F06D1FFF72CFB001B0228F5D9032038
:100F100035E0002033E0002031E0012B31D0214BBF
:100F20005B6803F48001E26991422CD103F03F0237
:100F3000216A8A4229D1616A47F6C0721A40B2EB2F
:100F4000811F24D103F44031A26A5208013AB1EB67
:100F5000024F1ED103F07062E16AB2EB016F1AD149
:100F600003F0E043226BB3EB027F16D1002006E0D2
:100F700001207047012002E0012000E0002002B0C3
:100F800070BD0120FBE70120F9E70120F7E7012010
:100F9000F5E70120F3E70120F1E70120EFE700BFCB
:100FA00000700040003802400000474270470000D7
:100FB00090F83D30DBB2012B37D1022380F83D3071
:100FC0000268D36843F00103D3600368194A93426F
:100FD00020D0B3F1804F1DD0A2F57C42934219D0AE
:100FE00002F58062934215D002F58062934211D0DF
:100FF00002F5784293420DD002F57052934209D027
:10100000A2F59432934205D01A6842F001021A60A8
:10101000002070479A6802F00702062A07D01A6873
:1010200042F001021A600020704701207047002042
:10103000704700BF0000014070477047704770471D
:1010400070B504460368DE681D6915F0020F10D004
:1010500016F0020F0DD06FF002021A610123037720
:1010600003689B6913F0030F5ED0FFF7E6FF0023D0
:10107000237715F0040F12D016F0040F0FD0236859
:101080006FF004021A610223237723689B6913F42B
:10109000407F4FD02046FFF7D0FF0023237715F085
:1010A000080F12D016F0080F0FD023686FF0080257
:1010B0001A61042323772368DB6913F0030F40D000
:1010C0002046FFF7BAFF0023237715F0100F12D048
:1010D00016F0100F0FD023686FF010021A6108236A
:1010E00023772368DB6913F4407F31D02046FFF774
:1010F000A4FF0023237715F0010F02D016F0010F93
:101100002DD115F0800F02D016F0800F2FD115F0E1
:10111000400F02D016F0400F31D115F0200F02D051
:1011200016F0200F33D170BDFFF786FF2046FFF782
:1011300085FF9CE72046FFF77FFF2046FFF77EFFF5
:10114000ABE72046FFF778FF2046FFF777FFBAE7C7
:101150002046FFF771FF2046FFF770FFC9E72368BD
:101160006FF001021A61204601F0E8F8C9E7236830
:101170006FF080021A61204600F0ABF8C7E72368E1
:101180006FF040021A612046FFF759FFC5E7236858
:101190006FF020021A61204600F09AF8C3E70000C1
:1011A0000368344A904212D0B0F1804F0FD0A2F5BC
:1011B0007C4290420BD002F58062904207D002F54B
:1011C0008062904203D002F57842904203D123F02E
:1011D00070034A681343274A90422AD0B0F1804FE7
:1011E00027D0A2F57C42904223D002F58062904243
:1011F0001FD002F5806290421BD002F578429042E7
:1012000017D002F57052904213D002F580629042DE
:101210000FD002F5806290420BD0A2F59832904236
:1012200007D002F58062904203D002F580629042BE
:1012300003D123F44073CA68134323F080034A693F
:10124000134303608B68C3620B688362094B984247
:1012500003D003F58063984201D10B690363012336
:101260004361036913F0010F03D0036923F0010305
:10127000036170470000014040B310B5044690F888
:101280003D30F3B1022384F83D30214651F8040B80
:10129000FFF786FF012384F8463084F83E3084F857
:1012A0003F3084F8403084F8413084F8423084F88C
:1012B000433084F8443084F8453084F83D300020D1
:1012C00010BD80F83C30FFF771FEDBE7012070476E
:1012D0007047704738B504460268136923F44053D9
:1012E000C1680B4313618368026913434269134366
:1012F000C2691A430168CB6823F4164323F00C0338
:101300001343CB600268536923F4407381690B4334
:1013100053610368314A934206D002F580629342DA
:1013200002D0FFF723FB01E0FFF730FBE369B3F5E1
:10133000004F29D00021031849411B1841F1000139
:10134000C90041EA5371DB00181863684FEA830251
:101350004FEA937341F10001FEF75AFF204DA5FBC0
:1013600000325109642303FB11031B013233A5FB37
:1013700003235B0903F0F00202EB011203F00F03F9
:10138000216813448B6038BD0023021843EB03012E
:10139000121841F10001C90041EA5271D20010183F
:1013A00041F10001626892185B41FEF731FF0C4D7C
:1013B000A5FB00325109642303FB1103DB00323328
:1013C000A5FB03235B095A0002F4F87202EB011239
:1013D00003F00703216813448B60D4E70010014039
:1013E0001F85EB5160B310B5044690F8413013B33C
:1013F000242384F841302268D36823F40053D36057
:101400002046FFF767FF2268136923F490431361B6
:101410002268536923F02A0353612268D36843F496
:101420000053D36000206064202384F8413084F8A6
:101430004230606310BD80F8403001F03DF8D7E7DE
:1014400001207047842801D0033070470020704786
:1014500008B500F037FD002008BD2DE9F04387B046
:1014600004460F464569BDB18669AEB1D0F8048027
:10147000D0F80090B0F90800FFF7E4FF029601955C
:1014800000903B4622694946404600F0ABFC05907F
:10149000059807B0BDE8F08365682668D4F8108029
:1014A000B4F90800FFF7CEFF05AB019300903B466F
:1014B0001FFA88F23146284600F0CFFC0128E7D019
:1014C0000020E6E708B500B9012000F045FE002045
:1014D00008BD00F1080343604FF0FF328260C36033
:1014E0000361002303607047002303617047436872
:1014F0004B609A688A6051609960086103680133A3
:101500000360704730B40D68B5F1FF3F11D000F1B2
:1015100008031C465B681A68AA42FAD963684B60E4
:1015200099608C606160086103680133036030BCBE
:1015300070470469F2E70369416882688A6041681C
:1015400051605A68824206D0002202611A68013A4C
:101550001A601868704782685A60F5E782B0002305
:1015600001930D4B1B68B3F1FF3F08D04FF05003C0
:1015700083F31188BFF36F8FBFF34F8FFEE74FF0F8
:10158000500383F31188BFF36F8FBFF34F8F019B1D
:10159000002BFCD002B0704708000020084800680B
:1015A000006880F308884FF0000080F3148862B66A
:1015B00061B6BFF34F8FBFF36F8F00DF00BF000036
:1015C00008ED00E0DFF80C00016841F470010160F3
:1015D0007047000088ED00E04FF0807340F8043C55
:1015E00021F0010140F8081C054B40F80C3C40F884
:1015F000202C6FF0020340F8243C4438704700BFB1
:101600005D15000800000000000000000000000060
:10161000074B19680868B0E8F04F80F30988BFF3FA
:101620006F8F4FF0000080F311887047AFF3008098
:10163000583C00204FF0500383F31188BFF36F8FA5
:10164000BFF34F8F0B4A136801331360012B00D097
:1016500070474FF0E023D3F8043D13F0FF0FF7D0AD
:101660004FF0500383F31188BFF36F8FBFF34F8F99
:10167000FEE700BF08000020094B1B6843B94FF08C
:10168000500383F31188BFF36F8FBFF34F8FFEE7D3
:10169000013B034A13600BB983F31188704700BF05
:1016A0000800002000000000000000000000000012
:1016B000EFF30980BFF36F8F154B1A681EF0100F00
:1016C00008BF20ED108A20E9F04F10602DE90900D5
:1016D0004FF0500080F31188BFF34F8FBFF36F8F2F
:1016E00000F060FD4FF0000080F3118809BC19681C
:1016F0000868B0E8F04F1EF0100F08BFB0EC108A79
:1017000080F30988BFF36F8F704700BFAFF300808D
:10171000583C002008B54FF0500383F31188BFF305
:101720006F8FBFF34F8F00F00FFC28B14FF0E02315
:101730004FF08052C3F8042D002383F3118808BDB5
:101740004FF0E022002313619361054B1B680549AC
:10175000A1FB03139B09013B5361072313617047EE
:101760000C000020D34D62104FF0E023D3F8002D81
:101770003D4B9A421CD04FF0E023D3F8002D3B4B59
:101780009A421ED030B583B0394B1A78D2B201924A
:10179000FF221A701B78DBB28DF803309DF80330FE
:1017A00003F05003334A1370334B07221A601BE0D7
:1017B0004FF0500383F31188BFF36F8FBFF34F8F48
:1017C000FEE74FF0500383F31188BFF36F8FBFF331
:1017D0004F8FFEE7284A1368013B13609DF80330E2
:1017E0005B00DBB28DF803309DF8033013F0800FFF
:1017F000F0D1214B1B68032B08D04FF0500383F32B
:101800001188BFF36F8FBFF34F8FFEE71B021A4A99
:10181000136003F4E0631360019BDBB2144A13709E
:101820004FF0E024D4F8203D43F47003C4F8203D89
:10183000D4F8203D43F07043C4F8203DFFF780FF0B
:1018400000250E4B1D60FFF7BDFED4F8343F43F07A
:101850004043C4F8343FFFF7A1FE00F0A3FCFFF7BC
:101860007DFE284603B030BD71C20F4170C20F41EA
:1018700000E400E0300000203400002008000020D8
:10188000124A12F0070F1ED0D11D21F00701C1F539
:10189000705313440A460E4802600021416013440D
:1018A000083B23F007030B48036059601960991A3D
:1018B00051601360084B1960084B1960084B4FF0DA
:1018C00000421A6070474FF47053E4E73C00002078
:1018D000503C002038000020443C0020403C0020C8
:1018E0003C3C0020164B1A461B688342FBD35168D0
:1018F00002EB010C844509D0416800EB010C634503
:1019000009D00360904219D01060704740680144CC
:1019100051601046F0E710B40A4C2468A3420BD083
:101920005B681944416013681B680360904200D0F3
:1019300010605DF8044B70470460F7E7704700BF24
:10194000503C00203800002070B5054600F0F4FA45
:10195000364B1B68A3B1364B1B681D424ED135B1C7
:10196000083515F0070F02D025F007050835002DC2
:1019700046D0304B1B68AB4251D32F4A146804E069
:10198000FFF77EFFE7E722461C466368AB4202D2C0
:101990002368002BF7D1254B1B68A34241D0166862
:1019A00008362368136063685B1B102B10D960191D
:1019B00010F0070F08D04FF0500383F31188BFF3E6
:1019C0006F8FBFF34F8FFEE743606560FFF78AFFBD
:1019D000626818490B689B1A0B60184909688B42AA
:1019E00001D216490B60124B1B681343636000233E
:1019F0002360134A13680133136002E0002600E0FD
:101A0000002600F02DFB16F0070F0CD04FF050030E
:101A100083F31188BFF36F8FBFF34F8FFEE700266C
:101A2000EFE70026EDE7304670BD00BF380000202C
:101A30003C3C0020403C0020503C0020443C002026
:101A4000483C0020002834D038B50446A0F10805F1
:101A500050F8043C174A1268134208D14FF0500363
:101A600083F31188BFF36F8FBFF34F8FFEE750F8FA
:101A7000081C41B14FF0500383F31188BFF36F8FFF
:101A8000BFF34F8FFEE723EA020340F8043C00F067
:101A900053FA54F8041C084A13680B441360284690
:101AA000FFF720FF054A13680133136000F0D8FAEE
:101AB00038BD70473C3C0020403C00204C3C00209E
:101AC000084B1B681B6823B9074B4FF0FF321A60A5
:101AD0007047044B1B68DB68DB685A68024B1A606E
:101AE000704700BF5C3C0020303D00202DE9F047EE
:101AF00007469846089DDDF824900A9C266B02F163
:101B00008042013A06EB820626F0070600293AD009
:101B10008E464FF0000CBCF10F0F0BD81EF80C20B6
:101B200004EB0C0383F834201EF80C3013B10CF1D5
:101B3000010CF0E7002384F84330062D00D9062578
:101B4000E56265644FF0000AC4F848A0201DFFF765
:101B5000CBFC04F11800FFF7C7FC2461C5F10705B1
:101B6000A5616462C4F84CA084F850A0424639468E
:101B70003046FFF731FD2060B9F1000F01D0C9F800
:101B80000040BDE8F087002384F83430D5E700003A
:101B900038B5002407E004EB840293000E48184493
:101BA000FFF797FC0134062CF5D90C4D2846FFF7BA
:101BB00090FC0B4C2046FFF78CFC0A48FFF789FC91
:101BC0000948FFF786FC0948FFF783FC084B1D60B6
:101BD000084B1C6038BD00BF643C0020043D002061
:101BE000183D00203C3D0020683D0020543D002071
:101BF0005C3C0020603C002010B50446FFF71AFD55
:101C0000214A136801331360204B1B685BB1204BE2
:101C10001B686BB91D4B1B68DA6AE36A9A4207D8E6
:101C20001A4B1C6004E0194B1C601368012B28D070
:101C3000184A136801331360E06A01238340164A8F
:101C400011680B43136000EB8000211D134B03EB65
:101C50008000FFF74CFCFFF70FFD0D4B1B687BB1BD
:101C60000A4B1B68DA6AE36A9A4209D24FF0E02312
:101C70004FF08052C3F8042DBFF34F8FBFF36F8F27
:101C800010BDFFF785FFD3E7F03C0020583C002053
:101C9000503D0020FC3C0020003D0020643C002022
:101CA00010B5044690F8513063B1012B11D0022BCE
:101CB0000ED04FF0500383F31188BFF36F8FBFF343
:101CC0004F8FFEE7006BFFF7BDFE2046FFF7BAFE21
:101CD00010BDFFF7B7FEFBE70F4B1B68D3B110B584
:101CE000FFF7A8FC0D4BDB68DC68201DFFF723FC29
:101CF0000B4A1368013B1360074A1368013B1360EA
:101D0000FFF7BAFC2046FFF7CBFF034B1B68002B05
:101D1000E6D110BD704700BFF43C0020683D0020B4
:101D2000F03C002008B5FFF7D7FF074B1B68012BDD
:101D3000F9D94FF0E0234FF08052C3F8042DBFF3E0
:101D40004F8FBFF36F8FEEE7643C002070B5044601
:101D50000D461D4B1E681D4B18680430FFF7EBFB4A
:101D600050B91A4B1B68DA6A012303FA02F21849C8
:101D70000B6823EA02030B60B4F1FF3F0DD034443B
:101D8000124B1B685C60A64210D9124B18680F4BAF
:101D900019680431FFF7B6FB70BD002DEFD00B4B77
:101DA000196804310C48FFF7A2FBF5E70B4B1868E4
:101DB000064B19680431FFF7A5FB094B1B68A342CA
:101DC000EAD9074B1C60E7E77C3D0020583C002027
:101DD000003D0020603C0020543D00205C3C002081
:101DE000303D002030B587B00B9C7CB10C9DB5B167
:101DF00054250495049D542D1AD04FF0500383F3BD
:101E00001188BFF36F8FBFF34F8FFEE74FF0500382
:101E100083F31188BFF36F8FBFF34F8FFEE74FF04F
:101E2000500383F31188BFF36F8FBFF34F8FFEE72B
:101E3000049D0C9D2C63022485F8514000240394DA
:101E4000029505AC01940A9C0094FFF74FFE0C9894
:101E5000FFF7D2FE059807B030BD2DE9F04385B0FD
:101E60000746884614461E469000FFF76DFD00B3F6
:101E700081465420FFF768FD0546B0B1C0F83090A8
:101E8000E5B1002385F85130039302950D9B019332
:101E90000C9B00933346224641463846FFF726FE08
:101EA0002846FFF7A9FE012005E04846FFF7CAFDD6
:101EB000E6E74FF0FF3005B0BDE8F0834FF0FF30AC
:101EC000F9E7000010B588B000240594069407AA2D
:101ED00006A905A800F0B2F9059B0293069B0193A1
:101EE00000942346079A0E490E48FFF77BFF0E4BDE
:101EF000186090B14FF0500383F31188BFF36F8FD8
:101F0000BFF34F8F094B4FF0FF321A60084B01228D
:101F10001A60084B1C60FFF727FC08B010BD00BF1B
:101F2000D4260008251D00082C3D0020303D00204F
:101F3000503D00207C3D0020024A136801331360AD
:101F4000704700BFF83C0020F8B53A4B1B68002BE7
:101F500069D1394B1D6801351D60C5B9374B1B6808
:101F60001B6843B14FF0500383F31188BFF36F8FA9
:101F7000BFF34F8FFEE7314A1168314B186810608C
:101F80001960304A136801331360FFF799FD2E4B37
:101F90001B68AB423DD900272C4B1B68DB6A03EB67
:101FA00083039A002A4B9B58012B00D90127294B08
:101FB0001B68002B3CD001273AE001271F4B1B6810
:101FC0001B6843B31D4B1B68DB68DC6863689D427C
:101FD00026D3261D3046FFF7AEFAA36A1BB104F1E3
:101FE0001800FFF7A8FAE36A01229A401A49086824
:101FF00002430A6003EB83039A00314614481044FD
:10200000FFF775FAE26A114B1B68DB6A9A42D4D279
:10201000D4E70027D2E70C4B4FF0FF321A60BBE742
:10202000094A1360B8E70D4A1368013313600027AB
:102030003846F8BDF83C00207C3D00205C3C002088
:10204000603C0020343D0020303D0020583C002002
:10205000643C0020803D0020003D0020383D0020F1
:1020600038B5354B1B6843B94FF0500383F31188E3
:10207000BFF36F8FBFF34F8FFEE7FFF7DBFA2E4BF7
:102080001A68013A1A601B68002B4FD12B4B1B6852
:102090000BB900244BE00024294B1B681BB3284BD1
:1020A000DB68DC6804F11800FFF745FA251D2846B7
:1020B000FFF741FAE06A01238340224A11680B438B
:1020C000136000EB800029461F4B03EB8000FFF7F5
:1020D0000EFAE26A1D4B1B68DB6A9A42DCD31C4B8A
:1020E00001221A60D8E70CB1FFF7EAFC194B1C6813
:1020F00084B9174B1C68D4B14FF0E0234FF08052E5
:10210000C3F8042DBFF34F8FBFF36F8F01240EE090
:10211000013C07D0FFF718FF0028F9D00C4B012233
:102120001A60F5E70B4B00221A60E2E70024FFF784
:10213000A3FA204638BD00BFF83C0020F03C002048
:102140003C3D0020003D0020643C0020583C002025
:10215000803D0020383D002010B5A8B10446104B4A
:102160001B6843B14FF0500383F31188BFF36F8FA7
:10217000BFF34F8FFEE7FFF7DFFE00212046FFF79A
:10218000E5FDFFF76DFF48B94FF0E0234FF08052B7
:10219000C3F8042DBFF34F8FBFF36F8F10BD00BF87
:1021A000F83C0020204B1B681BB1204B01221A6019
:1021B00070471E4B00221A601D4B1B68B3FA83F355
:1021C000DBB2C3F11F0303EB83018A0019498A586C
:1021D00042B94FF0500383F31188BFF36F8FBFF301
:1021E0004F8FFEE7134903EB830082000A445068D7
:1021F0004068506003EB830C4FEA8C0208321144B4
:10220000884209D003EB83039A000A4B13445B68AE
:10221000DA68094B1A607047406862469100054AC7
:102220000A445060EEE700BFF83C0020803D0020EB
:10223000003D0020643C0020583C0020034B03601C
:10224000034B0B6080231360704700BF843F002066
:10225000843D0020F0B58BB00024059406940794CB
:10226000089409940194264B1A6B42F004021A63F5
:102270001A6B02F004020192019A02941A6B42F066
:1022800080021A631A6B02F080020292029A03948F
:102290001A6B42F001021A631A6B02F001020392F8
:1022A000039A04941A6B42F002021A631B6B03F048
:1022B00002030493049B134D224620212846FEF777
:1022C00099FA4FF4005305934FF4041306930794BF
:1022D00005A90D48FEF7A2F92027059701260696C5
:1022E0000794089405A92846FEF798F905970696DD
:1022F0000794089405A92846FEF790F90BB0F0BDA5
:1023000000380240000002400008024008B50120E9
:10231000FFF7D8F8084C012220212046FEF76AFA80
:10232000C820FFF7CFF8002220212046FEF762FAEE
:10233000C820FFF7C7F8EAE70000024008B50268C6
:10234000034B9A4200D008BDFEF7FEF8FBE700BF42
:102350000000014072B6FEE708B50A480A4B036068
:102360004FF4E133436000238360C36003610C22B8
:1023700042618361C361FFF735F800B908BDFFF71B
:10238000E9FF00BFDC3F00200044004000B595B0ED
:102390003422002107A800F079F900230293039367
:1023A00004930593069300931F4A116C41F08051EA
:1023B0001164126C02F080520092009A01931B4942
:1023C0000A6822F4404242F480420A600A6802F439
:1023D00040420192019A0222079201210A911021A2
:1023E0000B910D920E930F914FF4A8731093042349
:1023F00011931292139207A8FEF7B6FB80B90F2330
:10240000029302210391002304934FF4805205921A
:10241000069302A8FEF7F4F920B915B05DF804FBA5
:10242000FFF798FFFFF796FF00380240007000406A
:1024300000B589B0FEF76EF8FFF7A8FFFFF70AFFB7
:10244000FFF78AFF0DF1040C084C0FCCACE80F002D
:1024500094E807008CE80700002101A8FEF7FDFFC3
:10246000034B1860FEF7F4FFFEE700BFB826000834
:10247000D83F002000B583B0002200920D4B596C6C
:1024800041F480415964596C01F4804100910099F4
:102490000192196C41F0805119641B6C03F0805358
:1024A0000193019B0F216FF00100FEF771F803B05B
:1024B0005DF804FB0038024000B589B000230393A7
:1024C00004930593069307930268154B9A4202D032
:1024D00009B05DF804FB0021019103F5FA331A6C91
:1024E00042F400321A641A6C02F400320192019A2A
:1024F00002911A6B42F001021A631B6B03F0010395
:102500000293029B0C230393022304930323069359
:102510000723079303A90348FEF780F8D8E700BF15
:10252000004400400000024030B589B00546002458
:1025300001941E4B5A6C42F001025A645B6C03F02A
:1025400001030193019B02A903A8FEF72FFAFEF7EE
:102550001DFA03461648A0FB03239B0C013B1548BC
:10256000154A026040F2E732C26043600461846051
:102570008461FEF781FE044610B1204609B030BDEB
:102580000C48FEF715FD04460028F6D11920FEF789
:1025900037F80F2D01D90124EFE700222946192031
:1025A000FDF7F6FF054B1D60E7E700BF003802406E
:1025B00083DE1B4324400020000001400400002073
:1025C000FEE7FEE7FEE7FEE7FEE7704708B50248D4
:1025D000FEF736FD08BD00BF24400020034AD2F8B4
:1025E000883043F47003C2F88830704700ED00E093
:1025F000DFF834D0FFF7F2FF0C480D490D4A0023F5
:1026000002E0D458C4500433C4188C42F9D30A4AA7
:102610000A4C002301E013600432A242FBD300F015
:1026200011F8FFF705FF70470000022000000020AE
:102630001000002018270008100000207040002023
:10264000FEE7000070B50D4D0D4C641BA410002674
:10265000A64209D10B4D0C4C00F020F8641BA410CD
:102660000026A64205D170BD55F8043B98470136B7
:10267000EEE755F8043B98470136F2E708270008D3
:1026800008270008082700080C2700080244034612
:10269000934200D1704703F8011BF9E7F8B500BF7A
:1026A000F8BC08BC9E467047F8B500BFF8BC08BC33
:0826B0009E4670470000000087
:1026B800DC2600080D2300080000000000000000D0
:1026C80080000000000000000000000049444C4564
:1026D8000000000064656661756C745461736B007A
:1026E80000000000000000000102030406070809BA
:0826F8000000000001020304D0
:0827000040DBFF7F0100000037
:08270800F501000800000000CB
:08271000D101000800000000E7
:102718000100000010000000AAAAAAAA0024F400E0
:04000005080025F1D9
:00000001FF
