:020000040000FA
:100000006002001045010000490100004B010000A2
:100010004D0100004F0100005101000000000000F0
:10002000000000000000000000000000530100007C
:1000300055010000000000005701000059010000B8
:100040005B0100005B0100005B0100005B01000040
:100050005B0100005B0100005B0100005B01000030
:100060005B0100005B0100005B0100005B01000020
:100070005B0100005B0100005B0100005B01000010
:100080005B0100005B0100005B0100005B01000000
:100090005B0100005B0100005B0100005B010000F0
:1000A0005B0100005B0100005B0100005B010000E0
:1000B0005B0100005B0100005B0100005B010000D0
:1000C0005B01000000F002F800F02EF80AA090E8B2
:1000D000000C82448344AAF10107DA4501D100F003
:1000E00023F8AFF2090EBAE80F0013F0010F18BFA2
:1000F000FB1A43F0010318471C0200002C02000009
:100100000023002400250026103A28BF78C1FBD820
:10011000520728BF30C148BF0B6070471FB5AFF30F
:1001200000801FBD10B510BD00F0B3F81146FFF7F9
:10013000F5FF00F077F800F0D1F8FFF7F3FF00F0DB
:10014000DFF8000008480047FEE7FEE7FEE7FEE7AD
:10015000FEE7FEE7FEE7FEE7FEE7FEE703480449A9
:10016000024A044B70470000C50000006000001008
:100170006002001060000010002207E0002100E093
:10018000491C41F270739942FAD3521C8242F5D352
:10019000704710B504464FF4FF003349C861E003CF
:1001A00088614FF480608861400088613220FFF7E9
:1001B000E3FF4FF400602C49C86110BD10B5044640
:1001C00003E02078FFF7E5FF641C20780028F8D1D1
:1001D00010BD10B504464FF4FF002349C861E00389
:1001E00088614FF48060C861400088613220FFF769
:1001F000C3FF4FF400601C49C86110BD00B51A4828
:1002000000681A490843184908603820FFF7E1FFE1
:100210000E20FFF7DEFF0120FFF7DBFF8020FFF756
:10022000D8FF00BD00B5FFF7E9FF11A0FFF7C6FF3B
:10023000C020FFF7CEFF12A0FFF7C0FF002000BDD7
:1002400030B504467CB10A20B4FBF0F52846FFF730
:10025000F7FF0A20B4FBF0F100FB11403030C5B2CB
:100260002846FFF796FF30BD00C00920008C7F00B4
:100270004352414E45532056415253495459000070
:100280004C5043313736382050726F0070477047FA
:100290007047754600F028F8AE460500694653469B
:1002A00020F00700854618B020B5FFF757FFBDE8DE
:1002B00020404FF000064FF000074FF000084FF0CD
:1002C000000B21F00701AC46ACE8C009ACE8C0095E
:1002D000ACE8C009ACE8C0098D4670470446AFF3EE
:1002E00000802046FFF729FF0048704700000010FB
:1002F000704700000000000000000000FFFFFFFF4B
:1003000003494FF01800ABBE70470000E5FFFFFF48
:10031000260002002403000000000010600200001C
:0403200000010000D8
:0400000500000145B1
:00000001FF
