:10072A00D3EF9400EE9400400F7DFFDDFE7DE8DDFF
:08073A00FEEF1F70EB1E80E8CA
:010742002294
:0A078C0008421714141F05051D0094
:10075C00C2A08F90C2A1D2A27F027E0012072AC231
:02076C00A222C7
:10076E00D2A08F90C2A1D2A27F027E0012072AC20F
:02077E00A222B5
:100743007F3812075C7F1012075C7F0112075C7F02
:090753000E12075C7F8002075CB6
:1006C9008B1E8A1F8920AB1EAA1FA9201203B6FF01
:1006D900601012076E74012520F520E4351FF51FFF
:0306E90080E42288
:0405CC008E358F36A3
:1005D000E4F541E536453570057F3012076EE536A6
:1005E00045356028AE35AF367C007D0A120424AF55
:1005F00005AE41054174372EF8A607AE35AF367CFF
:10060000007D0A1204248E358F3680D21541C3E551
:100610004164809480401074372541F8E62430FF0F
:0706200012076E154180E78F
:0106270022B0
:1006EC00E4F55C7F4012075CE4F55C7442255CF831
:1006FC00E6FF12076E055CC3E55C6480948840EBF2
:01070C0022CA
:10070D000D0A0052656365697665642073747269BC
:0D071D006E67206973203A000000000000A4
:0C078000759850758920758DFDD28E2271
:080797008F993099FDC29922EF
:08079F003098FDC298AF9922C9
:1006A4008B598A5A895BAB59AA5AA95B1203B66063
:1006B40013055BE55B7002055A14F91203B6FF12C9
:0506C400079780E2220F
:0404F4008E528F5342
:1004F80078547C007D007BFF7A0779257E007F0594
:10050800120390E4FBE553455270057F30020797CC
:10051800D3E5539400E55294004027AE52AF537C84
:10052800007D0A1203CFED2430FF74542BF8A60780
:10053800AE52AF537C007D0A1203CF8E528F530BFD
:1005480080CE1BC3EB64809480400C74542BF8E677
:07055800FF1207971B80EC66
:01055F002279
:080560008F4D8E4C8D4B8C4A2F
:1005680012023F8E4F8F501204F47F2E120797E429
:10057800F551AD51ED3395E0FCC3ED954E7480F81F
:100588006C98503FAC4FAD50E4120206A804A90580
:10059800AA06AB07AF4DAE4CAD4BAC4A120006E411
:1005A800FBFA792078411200FB8F4D8E4C8D4B8CD5
:1005B8004A12023F8E4F8F50EF2430FF12079705E3
:0305C8005180AFB0
:0105CB00220D
:10062800E4FE12079F74212EF8A60774212EF8E61F
:10063800640D6003BE1304E4F680030E80E47BFFC0
:100648007A07790D1206A47BFF7A0779101206A49F
:100658007B007A0079211206A47BFF7A07790D02C4
:0206680006A4E6
:10066A00E4F51D12078012074312079F8F08EF64F3
:10067A000A60107409251DF8A608AF081207970525
:10068A001D80E67F8012075C7B007A0079091206DA
:0A069A00C97FE87E0312072A80CF13
:100003000202ABE86480F8E933E83360110460F07E
:10001300ED33EC337009E8FCE9FDEAFEEBFF220463
:1000230060DED3EB9FEA9EE99DE8C2E78CF0C2F75E
:1000330095F0400CE8CCF8E9CDF9EACEFAEBCFFB2A
:1000430012027685D0F05804700320D5B3E804700B
:10005300075002B2D50202B592D5EC0460F7E4CCA6
:10006300C0E0C398F8603B94186008400DD0E0FBF3
:1000730002028DE4FBFAC9FC8028E830E406E4C9F7
:10008300FBE4CAFCE830E305E4C9CACBFCE8540747
:100093006010F8C3E913F9EA13FAEB13FBEC13FC52
:1000A300D8F130F52FC3E49CFCEF9BFFEE9AFEEDF5
:1000B30099FDD0E0FBEF4E4D4C701222DB030202A0
:1000C300B2EC2CFCEF33FFEE33FEED33FDED30E706
:1000D300EB02028DEF2BFFEE3AFEED39FDD0E0FB94
:1000E30050130BBB00030202B5ED13FDEE13FEEF3D
:0800F30013FFEC13FC02028D67
:1000FB00EC4D6011E8497017ED33EC3304600DE4FF
:10010B00FCFFFEFD22E933E8330470F80202AB1268
:10011B00027658046009E4CC248150062850090269
:10012B0002B52840030202B2C0E0EB4A7044B9802A
:10013B0006D0E0FB0202A1EF4E701CBD8008EBFF66
:10014B00EAFEE9FD80EBE98DF0A4FEE5F00201E4A7
:10015B00E9CDF9EAFEEBFFEF89F0A4FCE5F0CE89DF
:10016B00F0A42EFFE435F0CD89F0A42DFEE435F09C
:10017B008067EF4E7005BD80D780C3EF8BF0A4ACCA
:10018B00F0EE8BF0A42CFCE435F0F8EF8AF0A42C05
:10019B00E5F038FCE433CB8DF0A42CFCE5F03BF818
:1001AB00EE8AF0A42CFCE5F038F8E433CF89F0A408
:1001BB002CFCE5F038CF3400CE89F0A42FFFE5F00E
:1001CB003EFEE433C98DF0A42EFEE5F039CD8AF066
:1001DB00A42FFFE5F03EFEE43DFD33D0E0FB5007DE
:1001EB000BBB000F0202B5EC2CFCEF33FFEE33FE22
:0601FB00ED33FD02028D50
:1002010075F020800E75F010800575F0087D007E78
:10021100007F003392D530D50312045AEC334010DD
:10022100EF33FFEE33FEED33FDEC33FCD5F0ED2281
:0E023100E5F0247EA2D513CC92E7CDCEFF22BD
:10023F00EDD2E7CD33EC3392D524814006E4FFFEB7
:10024F00FDFC22FCE4CFCECDCC24E0501174FF8016
:10025F00EDC3CC13CCCD13CDCE13CECF13CF0470B3
:07026F00F030D5DE02045A55
:10027600E9D2E7C933E833F892D5EDD2E7CD33ECCE
:0702860033FC5002B2D52247
:10028D00EC30E7100FBF000C0EBE00080DBD0004D2
:10029D000BEB6014A2D5EB13FCED92E7FD2274FF7E
:1002AD00FCFDFEFF22E480F8A2D574FF13FC7D80D7
:0302BD00E480EFEB
:030000000204688F
:0C046800787FE4F6D8FD75815C0204AFDB
:1002C000E709F608DFFA8046E709F208DFFA803E20
:1002D00088828C83E709F0A3DFFA8032E309F6080D
:1002E000DFFA8078E309F208DFFA807088828C8375
:1002F000E309F0A3DFFA806489828A83E0A3F60829
:10030000DFFA805889828A83E0A3F208DFFA804C02
:1003100080D280FA80C680D4806980F280338010D9
:1003200080A680EA809A80A880DA80E280CA803342
:1003300089828A83ECFAE493A3C8C582C8CCC583BA
:10034000CCF0A3C8C582C8CCC583CCDFE9DEE7808A
:100350000D89828A83E493A3F608DFF9ECFAA9F009
:10036000EDFB2289828A83ECFAE0A3C8C582C8CC5F
:10037000C583CCF0A3C8C582C8CCC583CCDFEADE78
:10038000E880DB89828A83E493A3F208DFF980CCDA
:1003900088F0EF60010E4E60C388F0ED2402B404D3
:1003A0000050B9F582EB2402B4040050AF2323457A
:0603B0008223900310738C
:1003B600BB010689828A83E0225002E722BBFE0245
:0903C600E32289828A83E4932278
:1003CF00BC000BBE0029EF8DF084FFADF022E4CC12
:1003DF00F875F008EF2FFFEE33FEEC33FCEE9DECDB
:1003EF00984005FCEE9DFE0FD5F0E9E4CEFD22ED21
:1003FF00F8F5F0EE8420D21CFEADF075F008EF2F6B
:10040F00FFED33FD4007985006D5F0F222C398FD5B
:05041F000FD5F0EA22F8
:10042400C2D5EC30E709B2D5E4C39DFDE49CFCEEF3
:1004340030E715B2D5E4C39FFFE49EFE1203CFC399
:10044400E49DFDE49CFC80031203CF30D507C3E494
:060454009FFFE49EFE2262
:0E045A00C3E49FFFE49EFEE49DFDE49CFC22B3
:1004740002066AE493A3F8E493A34003F68001F22E
:1004840008DFF48029E493A3F85407240CC8C33389
:10049400C4540F4420C8834004F456800146F6DF58
:1004A400E4800B010204081020408090078CE47E55
:1004B400019360BCA3FF543F30E509541FFEE4934D
:1004C400A360010ECF54C025E060A840B8E493A314
:1004D400FAE493A3F8E493A3C8C582C8CAC583CA3F
:1004E400F0A3C8C582C8CAC583CADFE9DEE780BEF7
:010796000062
:00000001FF
