:10047800D3EF9400EE940040147D7A7C00ED1D705B
:0D048800011CED4C70F7EF1F70E61E80E3C5
:010495002244
:1003CE007F107E001204787F201204B77F067E0015
:1003DE001204787F201204B77F017E001204787F0A
:1003EE00201204B77F017E001204787F281204B712
:1003FE007F101204B77F011204B77F061204B77F75
:04040E000F0204B71E
:0504B700C2B40204962E
:0504BC00D2B402049619
:0F049600C2B58F80D2B6C2B67F027E0002047854
:100453008B088A09890AAB08AA09A90A12018A60CA
:1004630013050AE50A7002050914F912018AFF123D
:0504730004BC80E22240
:04030A008E118F12AF
:10030E00E4F51DC3E5116480948050107F2D120416
:10031E00BCC3E49512F512E49511F511AE11AF12AE
:10032E007C007D0A1201A3ED2430FFAE1D051D7465
:10033E00132EF8A607AE11AF127C007D0A1201A390
:10034E008E118F12E512451170D2D3E51D64809483
:10035E0080400E7412251DF8E6FF1204BC151D8098
:01036E00E9A5
:01036F00226B
:080370008F0B8E0A8D098C0829
:100378001201098F108E0F8D0E8C0D12030A7F2E1D
:100388001204BCD3E50C648094804039AF0BAE0AEC
:10039800AD09AC08E4FBFA792078411200038F0B11
:1003A8008E0A8D098C081201098F108E0F8D0E8C04
:1003B8000DE47B0AFAF9F8120215EB2430FF120457
:0503C800BC150C80BE15
:0103CD00220D
:0604B100494E44494100E0
:100412001203CE7F801204B77F411204BC7F4212C6
:1004220004BC7FC01204B77BFF7A0479B112045373
:100432007F821204B77F7B7E0012030A7F87120439
:10044200B7750C037F1F7E857D457C41120370804A
:01045200FEAB
:10000300EC4D6011E8497017ED33EC3304600DE4F7
:10001300FCFFFEFD22E933E8330470F80201751298
:10002300014058046009E4CC248150062850090299
:10003300017F28400302017CC0E0EB4A7044B98091
:1000430006D0E0FB02016BEF4E701CBD8008EBFF96
:10005300EAFEE9FD80EBE98DF0A4FEE5F00200EC99
:10006300E9CDF9EAFEEBFFEF89F0A4FCE5F0CE89D8
:10007300F0A42EFFE435F0CD89F0A42DFEE435F095
:100083008067EF4E7005BD80D780C3EF8BF0A4ACC3
:10009300F0EE8BF0A42CFCE435F0F8EF8AF0A42CFE
:1000A300E5F038FCE433CB8DF0A42CFCE5F03BF811
:1000B300EE8AF0A42CFCE5F038F8E433CF89F0A401
:1000C3002CFCE5F038CF3400CE89F0A42FFFE5F007
:1000D3003EFEE433C98DF0A42EFEE5F039CD8AF05F
:1000E300A42FFFE5F03EFEE43DFD33D0E0FB5007D7
:1000F3000BBB000F02017FEC2CFCEF33FFEE33FE52
:06010300ED33FD0201577F
:10010900EDD2E7CD33EC3392D524814006E4FFFEEE
:10011900FDFC22FCE4CFCECDCC24E0501174FF804D
:10012900EDC3CC13CCCD13CDCE13CECF13CF0470EA
:07013900F030D5DE0202A741
:10014000E9D2E7C933E833F892D5EDD2E7CD33EC05
:0701500033FC5002B2D5227E
:10015700EC30E7100FBF000C0EBE00080DBD000409
:100167000BEB6014A2D5EB13FCED92E7FD2274FFB5
:10017700FCFDFEFF22E480F8A2D574FF13FC7D800E
:03018700E480EF22
:030000000204A552
:0C04A500787FE4F6D8FD75811D0204127A
:10018A00BB010689828A83E0225002E722BBFE0273
:09019A00E32289828A83E49322A6
:1001A300C2D5EC30E709B2D5E4C39DFDE49CFCEE77
:1001B30030E715B2D5E4C39FFFE49EFE1202B5C338
:1001C300E49DFDE49CFC80031202B530D507C3E433
:0601D3009FFFE49EFE22E6
:1001D90075F008758200EF2FFFEE33FECD33CDCCDD
:1001E90033CCC58233C5829BED9AEC99E582984060
:1001F9000CF582EE9BFEED9AFDEC99FC0FD5F0D63D
:10020900E4CEFBE4CDFAE4CCF9A88222B800C1B966
:100219000059BA002DEC8BF084CFCECDFCE5F0CBA4
:10022900F97818EF2FFFEE33FEED33FDEC33FCEBDD
:1002390033FB10D703994004EB99FB0FD8E5E4F998
:10024900FA227818EF2FFFEE33FEED33FDEC33FC85
:10025900C933C910D7059BE99A4007EC9BFCE99A79
:10026900F90FD8E0E4C9FAE4CCFB2275F010EF2FBE
:10027900FFEE33FEED33FDCC33CCC833C810D707BE
:100289009BEC9AE899400AED9BFDEC9AFCE899F8F9
:0E0299000FD5F0DAE4CDFBE4CCFAE4C8F9228C
:0E02A700C3E49FFFE49EFEE49DFDE49CFC2268
:1002B500BC000BBE0029EF8DF084FFADF022E4CC2D
:1002C500F875F008EF2FFFEE33FEEC33FCEE9DECF6
:1002D500984005FCEE9DFE0FD5F0E9E4CEFD22ED3C
:1002E500F8F5F0EE8420D21CFEADF075F008EF2F86
:1002F500FFED33FD4007985006D5F0F222C398FD77
:050305000FD5F0EA2213
:00000001FF
