:03000000020006F5
:03005F0002000399
:0300030002006296
:200062007590FF12007075900012007080F27E007F007CFF7D001CBCFF011DEC4D70F70E67
:10008200BE00010FC3EE94FFEF6480948040E32230
:06003500E478FFF6D8FD9F
:200013007900E94400601B7A00900096780175A000E493F2A308B8000205A0D9F4DAF275FD
:02003300A0FF2C
:20003B007800E84400600A790175A000E4F309D8FC7800E84400600C7900900001E4F0A3C3
:04005B00D8FCD9FAFA
:0D000600758107120092E58260030200037D
:040092007582002251
:00000001FF
