:020000040000FA
:100000006002001045010000490100004B010000A2
:100010004D0100004F0100005101000000000000F0
:10002000000000000000000000000000530100007C
:1000300055010000000000005701000059010000B8
:100040005B0100005B0100005B0100005B01000040
:100050005B0100005B0100005B0100005B01000030
:100060005B0100005B0100005B0100005B01000020
:100070005B0100005B0100005B0100005B01000010
:100080005B0100005B0100005B0100005B01000000
:100090005B0100005B0100005B0100005B010000F0
:1000A0005B0100005B0100005B0100005B010000E0
:1000B0005B0100005B0100005B0100005B010000D0
:1000C0005B01000000F002F800F02EF80AA090E8B2
:1000D000000C82448344AAF10107DA4501D100F003
:1000E00023F8AFF2090EBAE80F0013F0010F18BFA2
:1000F000FB1A43F0010318474801000058010000B3
:100100000023002400250026103A28BF78C1FBD820
:10011000520728BF30C148BF0B6070471FB5AFF30F
:1001200000801FBD10B510BD00F04FF81146FFF75D
:10013000F5FF00F02EF800F06DF8FFF7F3FF00F088
:1001400073F8000008480047FEE7FEE7FEE7FEE719
:10015000FEE7FEE7FEE7FEE7FEE7FEE703480449A9
:10016000024A044B70470000C50000006000001008
:100170006002001060000010002207E0002100E093
:10018000491C40F6B8339942FAD3521C8242F5D347
:10019000704700B509480A4908620DE00748084958
:1001A00088634FF4FA70FFF7E7FF04480449C86317
:1001B0004FF4FA70FFF7E0FFF0E700000000F81FCF
:1001C00000C00920704770477047754600F028F856
:1001D000AE4605006946534620F00700854618B034
:1001E00020B5FFF7BBFFBDE820404FF000064FF001
:1001F00000074FF000084FF0000B21F00701AC465C
:10020000ACE8C009ACE8C009ACE8C009ACE8C0097A
:100210008D4670470446AFF300802046FFF78DFF00
:10022000004870470000001003494FF01800ABBEB3
:10023000704700000900000026000200704700001F
:100240000003000000000010600200000001000038
:10025000000000000000000000000000000000009E
:10026000000000000000000000000000000000008E
:10027000000000000000000000000000000000007E
:10028000000000000000000000000000000000006E
:10029000000000000000000000000000000000005E
:1002A000000000000000000000000000000000004E
:1002B000000000000000000000000000000000003E
:1002C000000000000000000000000000000000002E
:1002D000000000000000000000000000000000001E
:1002E000000000000000000000000000000000000E
:1002F000000000000000000000000000FFFFFFFF02
:0400000500000145B1
:00000001FF
